:100000000C94A9000C94D1000C94D1000C949B0486
:100010000C949B040C949B040C94D1000C94D10080
:100020000C94D1000C94D1000C94D1000C94D1000C
:100030000C94D1000C94D1000C94D1000C94D100FC
:100040000C9435040C94D1000C9435030C940F03DC
:100050000C94D1000C94D1000C94D1000C94D100DC
:100060000C942B050C94D100000000002400270004
:100070002A0000000008000201000003040700003D
:1000800000000000000041542B4350494E3F0D0A30
:100090000041542B4346554E3D310D0A0041540D4D
:1000A0000A003B0D0A004154440041542B434F4C7D
:1000B000503D310D0A004154480D0A000D0A00411F
:1000C000542B434D47523D0041542B434D47463D31
:1000D000310D0A0041542B434D474C3D22524543BC
:1000E00020554E52454144222C310D0A0041542BDB
:1000F000434D474C3D2252454320554E52454144C5
:10010000222C310D0A0041542B434D47463D310D01
:100110000A0000000000250028002B00000000005D
:100120002300260029000404040404040404020239
:100130000202020203030303030301020408102066
:100140004080010204081020010204081020240B42
:100150001A0B11241FBECFEFD8E0DEBFCDBF24E0C5
:10016000AAE1B2E001C01D92AF37B207E1F712E099
:10017000A0E0B1E0EAEAFEE102C005900D92AA31EA
:10018000B107D9F710E0C8EAD0E004C02197FE011A
:100190000E94180FC73AD107C9F70E9427080C948C
:1001A000480F0C940000FC01538D448D252F30E046
:1001B000842F90E0821B930B541710F0CF96089574
:1001C00001970895FC01918D828D981761F0828DC1
:1001D000DF01A80FB11D5D968C91928D9F5F9F737B
:1001E000928F90E008958FEF9FEF0895FC01918D1D
:1001F000828D981731F0828DE80FF11D858D90E08A
:1002000008958FEF9FEF0895FC01918D228D892F26
:1002100090E0805C9F4F821B91098F73992708950E
:100220008BE993E00E94040121E0892B09F420E08E
:10023000822F0895FC01848DDF01A80FB11DA35A00
:10024000BF4F2C91848D90E001968F739927848FF6
:10025000A689B7892C93A089B1898C9180648C93ED
:10026000938D848D981306C00288F389E02D8081D8
:100270008F7D80830895EF92FF920F931F93CF930A
:10028000DF93EC0181E0888F9B8D8C8D981305C0E6
:10029000E889F989808185FD24C0F62E0B8D10E058
:1002A0000F5F1F4F0F731127E02E8C8DE8120CC0CB
:1002B0000FB607FCFACFE889F989808185FFF5CF71
:1002C000CE010E941A01F1CF8B8DFE01E80FF11DC6
:1002D000E35AFF4FF0820B8FEA89FB8980818062AD
:1002E00007C0EE89FF896083E889F989808180648D
:1002F000808381E090E0DF91CF911F910F91FF907B
:10030000EF900895CF93DF93EC01888D8823C9F097
:10031000EA89FB89808185FD05C0A889B9898C910E
:1003200086FD0FC00FB607FCF5CF808185FFF2CFA9
:10033000A889B9898C9185FFEDCFCE010E941A0161
:10034000E7CFDF91CF91089580E090E0892B29F0ED
:100350000E94100181110C94000008953FB7F89499
:100360008091CE029091CF02A091D002B091D102A3
:1003700026B5A89B05C02F3F19F00196A11DB11D00
:100380003FBFBA2FA92F982F8827820F911DA11D3B
:10039000B11DBC01CD0142E0660F771F881F991F78
:1003A0004A95D1F70895A0913C04B0913D04ED9198
:1003B000FC9111970190F081E02D682FCD010994F7
:1003C00020913A0430913B042817390771F4909139
:1003D000380480913904981741F0E0913804F0E036
:1003E000E757FD4F808190E008958FEF9FEF0895CC
:1003F00008951F93CF93DF93DC015C962D913C9180
:100400005D972115310539F481E090E013969C93B6
:100410008E9312973DC05196ED91FC915297509654
:100420009C915097892F80951FB75E964C915E974F
:1004300041FB772770F941FD6095F894408177235F
:1004400011F0492B01C048234083E9012197F1F7BE
:1004500048E0508160FF02C0592B01C058235083EF
:10046000E9012197F1F76695415099F7772321F03B
:1004700090818923808303C08081982B90831FBF44
:100480005C968D919C915D970197F1F721E030E0AA
:10049000C901DF91CF911F91089520913A043091C5
:1004A0003B042817390771F48091390420913804EE
:1004B00090E0805C9F4F821B910960E470E00E9495
:1004C000CE0E089580E090E0089520913A04309196
:1004D0003B0428173907B9F4909138048091390406
:1004E000981789F0E0913804F0E0E757FD4F8081DC
:1004F0002091380430E02F5F3F4F2F733327209334
:10050000380490E008958FEF9FEF089585ED809374
:10051000BC008091BC0084FDFCCF10926302089562
:1005200040913D02262F30E0240F311D213231054C
:10053000DCF4209163022430C9F4FC0180E090E0F7
:10054000861758F430913D022191DC01A55EBD4F24
:10055000A30FB11D2C930196F3CF80913D02680F3C
:1005600060933D0280E0089581E0089582E008955F
:1005700008958FEF9FEF08958FEF9FEF089580917B
:100580001A0290E09195819591090895CF93DF9398
:1005900000D0CDB7DEB7CB01642F49835A830E94C8
:1005A00090024981842F5A81952F0F900F90DF91EF
:1005B000CF910895CF93DF931F92CDB7DEB76983B4
:1005C00061E0CE0101960E94900281E090E00F90E0
:1005D000DF91CF910895089580E090E008950E9402
:1005E0001E0F0F931F93CF93DF93EC018C01FE013D
:1005F00001900020E9F73197EC1BFD0BC8018C1B23
:100600009D0B8E179F0730F4F80181918F010E9496
:10061000D301EDCFDF91CF911F910F9108951F92DC
:100620000F920FB60F9211242F933F934F935F9326
:100630006F937F938F939F93AF93BF93EF93FF93AA
:100640008BE993E00E941A01FF91EF91BF91AF9166
:100650009F918F917F916F915F914F913F912F91DA
:100660000F900FBE0F901F9018951F920F920FB60C
:100670000F9211242F938F939F93EF93FF93E09109
:10068000AB03F091AC038081E091B103F091B20330
:1006900082FD12C090818091B4038F5F8F7320918F
:1006A000B503821751F0E091B403F0E0E556FC4F3A
:1006B000958F8093B40301C08081FF91EF919F914A
:1006C0008F912F910F900FBE0F901F90189590E073
:1006D000FC01EE58FF4F3491FC01E65CFE4F249183
:1006E000FC01EA5DFE4FE491EE2309F43BC03323A5
:1006F00039F1333091F038F43130A9F0323001F56E
:1007000084B58F7D12C0373091F03830A1F034308D
:10071000B9F4809180008F7D03C0809180008F7735
:10072000809380000DC084B58F7784BD09C080910F
:10073000B0008F7703C08091B0008F7D8093B000B0
:10074000F0E0EE0FFF1FEE5EFE4FA591B4918FB764
:10075000F894EC91611103C020952E2301C02E2B3B
:100760002C938FBF0895CF93DF9390E0FC01E65C5C
:10077000FE4F2491FC01EA5DFE4F8491882361F1D4
:1007800090E0880F991FFC01E859FF4FC591D49163
:10079000FC01EE5EFE4FA591B491611109C09FB7B7
:1007A000F8948881209582238883EC912E230BC0B6
:1007B000623061F49FB7F8943881822F809583234B
:1007C0008883EC912E2B2C939FBF06C08FB7F89493
:1007D000E8812E2B28838FBFDF91CF9108958F92D0
:1007E0009F92AF92BF92CF92DF92EF92FF926B01F6
:1007F0007C010E94AE014B015C01C114D104E104F3
:10080000F104F1F00E94AE01DC01CB0188199909D5
:10081000AA09BB09883E9340A105B10570F321E008
:10082000C21AD108E108F10888EE880E83E0981E0C
:10083000A11CB11CC114D104E104F10419F7DDCFEE
:10084000FF90EF90DF90CF90BF90AF909F908F90F0
:1008500008952FB7F8946091CA027091CB028091ED
:10086000CC029091CD022FBF08951F920F920FB628
:100870000F9211242F933F938F939F93AF93BF9326
:100880008091CA029091CB02A091CC02B091CD028E
:100890003091C90223E0230F2D3720F40196A11DCA
:1008A000B11D05C026E8230F0296A11DB11D20939E
:1008B000C9028093CA029093CB02A093CC02B0935A
:1008C000CD028091CE029091CF02A091D002B09142
:1008D000D1020196A11DB11D8093CE029093CF024B
:1008E000A093D002B093D102BF91AF919F918F910D
:1008F0003F912F910F900FBE0F901F901895CF939F
:10090000DF93FC012491EC012196222331F0FC01BC
:1009100084910E94D301CE01F4CFDF91CF9108954D
:1009200080913C0490913D04DC01ED91FC910084A8
:10093000F185E02D09941F920F920FB60F921124AA
:100940002F933F934F935F936F937F938F939F93D7
:10095000AF93BF93EF93FF93E0913A04F0913B0480
:10096000309709F451C0968DA685B785858591FF8E
:1009700004C09C91892329F447C09C91892309F0E4
:1009800043C0A389B4899C918589809589238C93E0
:10099000868997890197F1F7608D718DA685B78556
:1009A000558538E020E0CB010197F1F7822F90E0E8
:1009B00095958795282F4C91452309F02068315053
:1009C00091F7868D81FD20958091390490E0019604
:1009D0008F73992730913804381749F0A091390462
:1009E000B0E0A757BD4F2C938093390403C0868D88
:1009F0008160868F828D938D0197F1F7A389B489E9
:100A00009C918589892B8C93FF91EF91BF91AF9138
:100A10009F918F917F916F915F914F913F912F9116
:100A20000F900FBE0F901F901895E0913A04F0912F
:100A30003B04E817F90769F4A389B4899C91858977
:100A4000809589238C9310923B0410923A0481E0A4
:100A5000089580E008951F920F920FB60F9211240F
:100A60002F933F934F935F936F937F938F939F93B6
:100A7000AF93BF93EF93FF938091B900887F803647
:100A800009F49CC068F5883209F45BC090F48031A9
:100A900009F454C038F4882309F4F6C0883009F406
:100AA0004DC0F6C0883109F44CC0803209F45DC0F5
:100AB000EFC0803409F468C048F4803309F455C0AD
:100AC000883309F0E5C080936202D8C0803509F40C
:100AD0004FC0883509F45DC0883409F0D9C0D6C04C
:100AE000883909F4C7C0A8F4883709F467C038F416
:100AF000883609F463C0803709F460C0C9C08838FB
:100B000009F4B8C0803909F45FC0803809F0C0C06A
:100B10005BC0803B09F486C038F4803A09F466C0B3
:100B2000883A09F47FC0B4C0803C09F4A7C0883C6F
:100B300009F4A4C0883B09F48AC0AAC08091880245
:100B400010C09091870280918602981770F5E0910D
:100B5000870281E08E0F80938702F0E0EA59FD4F13
:100B600080818093BB0085EC86C0809362028EC03A
:100B7000E091870281E08E0F809387028091BB0015
:100B8000F0E0EA59FD4F80839091870280918602C0
:100B90006EC0E091870281E08E0F80938702809182
:100BA000BB00F0E0EA59FD4F80838091650281111E
:100BB0006DC081E08093640284EA61C083E0809329
:100BC000630210926102CFCF80916102803208F0FF
:100BD00051C0E091610281E08E0F809361028091AB
:100BE000BB00F0E0EF5BFD4F8083BDCF85EC8093D1
:100BF000BC001092630280916102803230F4E09177
:100C00006102F0E0EF5BFD4F10826091610270E0E5
:100C1000E0913F02F091400281E492E00995109248
:100C2000610236C084E08093630210923E0210920B
:100C30003D02E0913B02F0913C02099580913D021A
:100C4000811105C081E080933D0210921B02E0916A
:100C50003E0281E08E0F80933E02F0E0E55EFD4FA4
:100C600080818093BB0090913E0280913D02981755
:100C700008F479CF85E88093BC000AC085EC8093A6
:100C8000BC001092630204C0109262020E948602AD
:100C9000FF91EF91BF91AF919F918F917F916F9154
:100CA0005F914F913F912F910F900FBE0F901F902A
:100CB0001895CF92DF92EF92FF920F931F93CF93ED
:100CC000DF936C017A018B01C0E0D0E0CE15DF0527
:100CD00089F0D8016D918D01D601ED91FC910190C3
:100CE000F081E02DC6010995892B11F47E0102C027
:100CF0002196ECCFC701DF91CF911F910F91FF900B
:100D0000EF90DF90CF900895009769F0FC0101907B
:100D10000020E9F73197AF01481B590BBC018BE963
:100D200093E00C94590680E090E00895CF93DF9310
:100D30000E948406EC018DE092E00E9484068C0FF4
:100D40009D1FDF91CF9108954F925F926F927F9296
:100D50009F92AF92BF92CF92DF92EF92FF920F934A
:100D60001F93CF93DF935C018B010E9429042B0119
:100D70003C01C12CD12C7601C0E0D0E00E9490044F
:100D8000892BD9F080913C0490913D04DC01ED91D8
:100D9000FC910284F385E02D0995982E0E94290488
:100DA0006B017C019E012F5F3F4FCA0DDB1D9882B6
:100DB000201731072CF5E901E1CFC017D10704F561
:100DC0000E942904DC01CB0184199509A609B70901
:100DD00089389341A105B10598F40E942904DC01EA
:100DE000CB018C199D09AE09BF09893B9B40A10528
:100DF000B10520F2C114D104E104F10409F4BECF1D
:100E0000DF91CF911F910F91FF90EF90DF90CF90E6
:100E1000BF90AF909F907F906F905F904F9008959C
:100E20008F929F92AF92BF92CF92DF92EF92FF92FA
:100E30001F93CF93DF930E9429044B015C01C12CC7
:100E4000D12C7601C0E0D0E00E949004892BE9F01B
:100E500080913C0490913D04DC01ED91FC91028471
:100E6000F385E02D0995182F0E9429046B017C0160
:100E7000FE01E55FFD4F8081811305C02196C430DE
:100E8000D10519F425C0C0E0D0E00E942904DC019E
:100E9000CB0188199909AA09BB0989389341A10591
:100EA000B10510F080E015C00E942904DC01CB01DF
:100EB0008C199D09AE09BF09893B9B40A105B1056D
:100EC00018F2C114D104E104F10409F4BDCFEACF52
:100ED00081E0DF91CF911F91FF90EF90DF90CF9055
:100EE000BF90AF909F908F900895EF92FF920F93D5
:100EF0001F93CF93DF93CDB7DEB7E0970FB6F8948B
:100F0000DEBF0FBECDBF86E091E00E947F040E944D
:100F10001007811102C08FEF4CC08DEE90E00E944F
:100F20007F048E010F5F1F4FCE018096F80178017C
:100F30001192E817F907E1F76EE170E0C8010E942D
:100F4000A40660E172E0C8010E942E0F892B41F0D7
:100F500062E370E080E090E00E94EF0380E029C04F
:100F60000E94100784ED90E00E947F04CE01C1969C
:100F7000F80111928F01E817F907D1F76FE270E0DD
:100F8000C7010E94A40663E172E0C7010E942E0F10
:100F9000892B09F26AE370E0C7010E94230F8C01DC
:100FA000892B09F4B8CF0E941007C80101960E944E
:100FB000370CE0960FB6F894DEBF0FBECDBFDF91C1
:100FC000CF911F910F91FF90EF9008958F929F9274
:100FD000AF92BF920F931F93CF93DF93CDB7DEB73E
:100FE000A1970FB6F894DEBF0FBECDBF19A2423055
:100FF00008F44AE08E010F5D1F4F842E912CA12C26
:10100000B12CA50194010E94E20EE62FB901CA019C
:1010100001501109EA3014F4E05D01C0E95CD80127
:10102000EC93232B242B252B61F7C8010E94840607
:10103000A1960FB6F894DEBF0FBECDBFDF91CF9162
:101040001F910F91BF90AF909F908F900895CF9375
:10105000DF93CDB7DEB7A0970FB6F894DEBF0FBE13
:10106000CDBF789484B5826084BD84B5816084BD31
:1010700085B5826085BD85B5816085BD80916E0036
:10108000816080936E001092810080918100826067
:1010900080938100809181008160809381008091A4
:1010A00080008160809380008091B1008460809393
:1010B000B1008091B00081608093B00080917A008F
:1010C000846080937A0080917A00826080937A00B5
:1010D00080917A00816080937A0080917A008068A4
:1010E00080937A001092C100E091AB03F091AC03C1
:1010F00082E08083E091A703F091A8031082E09141
:10110000A903F091AA038FEC80831092B303E091BE
:10111000AF03F091B00386E08083E091AD03F091DE
:10112000AE03808180618083E091AD03F091AE03D6
:10113000808188608083E091AD03F091AE0380816F
:1011400080688083E091AD03F091AE0380818F7D54
:10115000808361E084E00E94B3036E0181E2C80EE7
:10116000D11C8DE990E00E947F040E94100781113C
:101170000BC068EE73E080E090E00E94EF0386E32E
:1011800091E00E949606EDCF81E990E00E947F04F5
:101190000E941007F82E882361F3FE013196119208
:1011A000EC15FD05E1F703E010E086E890E00E9411
:1011B0007F0460E270E0CE0101960E94A40662E521
:1011C00071E0CE0101960E942E0F892B51F46CE242
:1011D00071E080E090E00E94EF030150110929F7CF
:1011E000C8CFFF2031F28DEE91E00E94960680EA92
:1011F000EAEFF2E0DF011D928A95E9F701E410EAD7
:1012000000937C0080917A00806480937A008091C2
:101210007A0086FDFCCF609178008091790070E0C3
:10122000782B072E000C880B990B0E94990C26EF47
:1012300038E24CE950E40E94F80C20E030E040E253
:1012400051E40E94230E6B017C018FE591E00E9426
:101250008406A7019601C701B6010E94C90E882322
:1012600019F08EE691E01AC046015701E894B7F8EC
:101270002FEF3FEF4FE75FE7C501B4010E94C90EB2
:1012800081110FC02FEF3FEF4FE75FE7C501B401BA
:101290000E94920C18162CF482E791E00E948406BA
:1012A00082C02FEF3FEF4FE75FE4C701B6010E9416
:1012B000C40E18161CF486E791E0F0CF2FEF3FEF35
:1012C0004FE75FECC701B6010E94920C87FDF3CF98
:1012D00020E030E0A901C701B6010E94920C87FF0F
:1012E0000FC0E0919B03F0919C030190F081E02DF1
:1012F0006DE28BE993E00995C701B601905802C0F1
:10130000C701B6012AE037ED43EA5BE30E94B70D5F
:101310002B013C010E94950E4B015C010E94970C31
:101320009B01AC01C301B2010E94B60D2B013C012F
:101330004AE0C501B4010E94E607E0919B03F091E9
:101340009C030190F081E02D6EE28BE993E009951A
:1013500020E030E040E251E4C301B2010E94F80C09
:101360002B013C010E94950E4B01A12CB12C4AE0AF
:10137000C501B4010E94E607C501B4010E94970CA3
:101380009B01AC01C301B2010E94B60D20E030E028
:1013900040E251E40E94F80C0E94950E80E090E03B
:1013A0004AE00E94E6078AE791E00E94840620E076
:1013B00030E04CE052E4C701B6010E94C40E18169A
:1013C0000CF027C18BE891E00E9496068DE991E030
:1013D0000E9496068AEA90E00E947F040E9410070D
:1013E000882391F068EE73E080E090E00E94EF03C4
:1013F00086EA90E00E947F048FEA91E00E94F10269
:1014000082EA90E00E947F0468EA71E680E090E062
:101410000E94EF0386EB90E00E947F040E94100779
:101420000E94750780939A0396E0F92E80919A03A3
:1014300018162CF48AEFE82E82E0F82E4BC06AEBE7
:1014400071E08AEF92E00E942E0F892B99F7FA94AF
:10145000F11005C00E94750780939A03EBCF68E8EE
:1014600073E180E090E00E94EF030E947507809393
:101470009A03DCCF1192E817F907E1F760EF70E00B
:10148000C5010E94A40664EC71E0C5010E942E0F04
:101490004C01009709F058C00FB6F894DEBE0FBE9D
:1014A000CDBE6AEB71E08AEF92E00E942E0F892B8D
:1014B00069F08BEC91E00E94960661E084E00E9466
:1014C0006703D701E12F1D92EA95E9F70E9475079E
:1014D00080939A0390909A0319140CF093C0CDB6A0
:1014E000DEB6ADB7BEB7A05FB1090FB6F894BEBF08
:1014F0000FBEADBFEDB7FEB731965F0188EC90E04F
:101500000E947F040E94100768EE73E080E090E084
:101510000E94EF038FEB90E00E947F044AE0BE013F
:101520006F5F7F4F892D990C990B0E94550CCE014E
:1015300001960E94F1028CEB90E00E947F04F5017D
:10154000C50180519F4F96CF6CE270E00E94230F3F
:1015500002965C0162E270E00E94230F009799F00E
:101560009501AAEEB2E05901FD01EA5EF2402817AA
:10157000390730F42F5F3F4FF50140814D93F3CF92
:10158000E651FD4F10826CE270E0C5010E94230F0E
:101590006CE270E001960E94230F02965C0162E209
:1015A00070E00E94230F009781F0F501A2EDB2E0F8
:1015B0009D01225D3240E817F90718F421912D931F
:1015C000F7CFF901EE52FD4F10826DE072E0C401D9
:1015D0000E942E0F009709F45FCFFC013296AAEF0C
:1015E000B2E020E030E081918D3039F02F393105C3
:1015F00021F02F5F3F4F8D93F6CFF901E650FD4F5D
:1016000010824ACF60E177E280E090E00E94EF0331
:1016100008C08AED91E00E94960660E084E00E9496
:10162000670368EB7BE080E090E00E94EF030E949C
:10163000A401E6CD88E291E090933F0480933E04BC
:101640008EE394E00C94150510929E0310929D0376
:1016500088EE93E0A0E0B0E080939F039093A00316
:10166000A093A103B093A20324E031E030939C0344
:1016700020939B0325EC30E03093A8032093A7032D
:1016800024EC30E03093AA032093A90320EC30E04F
:101690003093AC032093AB0321EC30E03093AE03E6
:1016A0002093AD0322EC30E03093B0032093AF03DE
:1016B00026EC30E03093B2032093B1031092B403D0
:1016C0001092B5031092B6031092B70310927404EF
:1016D000109273048093750490937604A09377041A
:1016E000B093780426E131E03093720420937104C2
:1016F000109241041092400480934204909343045A
:10170000A0934404B093450488E291E090933F0491
:1017100080933E0410925504109254041092570482
:1017200010925604109259041092580410925B04BF
:1017300010925A0460915C046E7F6D7F60935C042C
:101740006695617081E0682788E00E94670361E028
:1017500088E00E94B303E2E4F1E0E491E0934E04F8
:10176000EEE2F1E0E491F0E0EE0FFF1FEE5EFE4FDF
:10177000859194919093500480934F0460E087E0AA
:101780000E94B30380915C0481FD04C061E087E0A6
:101790000E9467038EE394E027E020934A04E1E48B
:1017A000F1E0E491E0934B04EDE2F1E0E491F0E04C
:1017B000EE0FFF1FE45EFE4F2591349130934D04F0
:1017C00020934C0490937E0480937D0490933D0479
:1017D00080933C048DE991E090935B0480935A04DC
:1017E0002DEB30E030935504209354042BE931E085
:1017F00030935704209356042CE231E0309359047F
:1018000020935804209168002460209368002DE6FE
:1018100030E0309352042093510420E82093530485
:101820000197F1F780913A0490913B0424E08E33C4
:101830009207E1F0009711F00E94150580915C0479
:101840008E7F80935C0410923904109238048EE3EA
:1018500094E090933B0480933A04E0915104F0911A
:101860005204908180915304892B80830895FC0158
:1018700088279927E89421912032E9F3293010F044
:101880002E30C8F32B3241F02D3239F4689404C065
:101890000E94600C820F911D219120532A30C0F3C9
:1018A0001EF4909581959F4F0895BB274A3031F4DF
:1018B000992322F4BDE2909581959F4F0C94690C79
:1018C0007AE0979F902D879F802D910D1124089588
:1018D000BB27FB015527AA27880F991FAA1FA4170A
:1018E00010F0A41B83955051B9F7A05DAA3308F0FE
:1018F000A95DA193009779F7B111B1931192CB0132
:101900000C94820CDC01FC01672F71917723E1F7C5
:10191000329704C07C916D9370836291AE17BF07BC
:10192000C8F308950E94D40C08F481E00895E89467
:1019300009C097FB3EF490958095709561957F4F17
:101940008F4F9F4F9923A9F0F92F96E9BB279395C5
:10195000F695879577956795B795F111F8CFFAF4D5
:10196000BB0F11F460FF1BC06F5F7F4F8F4F9F4F06
:1019700016C0882311F096E911C0772321F09EE864
:10198000872F762F05C0662371F096E8862F70E0CA
:1019900060E02AF09A95660F771F881FDAF7880FA4
:1019A0009695879597F90895990F0008550FAA0BFA
:1019B000E0E8FEEF16161706E807F907C0F0121662
:1019C0001306E407F50798F0621B730B840B950B65
:1019D00039F40A2661F0232B242B252B21F40895BA
:1019E0000A2609F4A140A6958FEF811D811D089557
:1019F0000E940B0D0C947C0D0E946E0D38F00E941D
:101A0000750D20F0952311F00C94650D0C946B0D61
:101A100011240C94B00D0E948D0D70F3959FC1F3AD
:101A2000950F50E0551F629FF001729FBB27F00D8C
:101A3000B11D639FAA27F00DB11DAA1F649F6627E1
:101A4000B00DA11D661F829F2227B00DA11D621F30
:101A5000739FB00DA11D621F839FA00D611D221FEA
:101A6000749F3327A00D611D231F849F600D211DCE
:101A7000822F762F6A2F11249F5750409AF0F1F051
:101A800088234AF0EE0FFF1FBB1F661F771F881FBA
:101A900091505040A9F79E3F510580F00C94650D80
:101AA0000C94B00D5F3FE4F3983ED4F386957795A0
:101AB0006795B795F795E7959F5FC1F7FE2B880F60
:101AC000911D9695879597F9089597F99F6780E8F6
:101AD00070E060E008959FEF80EC089500240A9480
:101AE0001616170618060906089500240A941216F9
:101AF0001306140605060895092E0394000C11F42C
:101B0000882352F0BB0F40F4BF2B11F460FF04C0D8
:101B10006F5F7F4F8F4F9F4F089557FD9058440F31
:101B2000551F59F05F3F71F04795880F97FB991F3C
:101B300061F09F3F79F087950895121613061406F9
:101B4000551FF2CF4695F1DF08C016161706180686
:101B5000991FF1CF86957105610508940895E89461
:101B6000BB2766277727CB0197F908955058BB27E5
:101B7000AA270E94CE0D0C947C0D0E946E0D38F0A9
:101B80000E94750D20F039F49F3F19F426F40C944F
:101B90006B0D0EF4E095E7FB0C94650DE92F0E94A8
:101BA0008D0D58F3BA17620773078407950720F065
:101BB00079F4A6F50C94AF0D0EF4E0950B2EBA2F28
:101BC000A02D0B01B90190010C01CA01A001112443
:101BD000FF27591B99F0593F50F4503E68F11A16EF
:101BE000F040A22F232F342F4427585FF3CF469580
:101BF00037952795A795F0405395C9F77EF41F16A2
:101C0000BA0B620B730B840BBAF09150A1F0FF0F6B
:101C1000BB1F661F771F881FC2F70EC0BA0F621F57
:101C2000731F841F48F4879577956795B795F79547
:101C30009E3F08F0B0CF9395880F08F09927EE0FDC
:101C40009795879508950E94370E0C947C0D0E94FD
:101C5000750D58F00E946E0D40F029F45F3F29F099
:101C60000C94650D51110C94B00D0C946B0D0E94E9
:101C70008D0D68F39923B1F3552391F3951B550B03
:101C8000BB27AA2762177307840738F09F5F5F4F4F
:101C9000220F331F441FAA1FA9F335D00E2E3AF08E
:101CA000E0E832D091505040E695001CCAF72BD0A6
:101CB000FE2F29D0660F771F881FBB1F26173707F7
:101CC0004807AB07B0E809F0BB0B802DBF01FF2729
:101CD00093585F4F3AF09E3F510578F00C94650D94
:101CE0000C94B00D5F3FE4F3983ED4F3869577955E
:101CF0006795B795F7959F5FC9F7880F911D9695E2
:101D0000879597F90895E1E0660F771F881FBB1F3D
:101D1000621773078407BA0720F0621B730B840BEA
:101D2000BA0BEE1F88F7E09508950E94950D88F094
:101D30009F5798F0B92F9927B751B0F0E1F0660F8F
:101D4000771F881F991F1AF0BA95C9F714C0B130D0
:101D500091F00E94AF0DB1E008950C94AF0D672F84
:101D6000782F8827B85F39F0B93FCCF386957795FF
:101D70006795B395D9F73EF49095809570956195E8
:101D80007F4F8F4F9F4F08950E94D40C08F48FEF20
:101D900008950E94D40C880B990B089597FB072E89
:101DA00016F4009407D077FD09D00E94040F07FCB9
:101DB00005D03EF4909581959F4F0895709561955B
:101DC0007F4F0895A1E21A2EAA1BBB1BFD010DC077
:101DD000AA1FBB1FEE1FFF1FA217B307E407F507DB
:101DE00020F0A21BB30BE40BF50B661F771F881FB7
:101DF000991F1A9469F760957095809590959B014D
:101E0000AC01BD01CF010895AA1BBB1B51E107C066
:101E1000AA1FBB1FA617B70710F0A61BB70B881F7A
:101E2000991F5A95A9F780959095BC01CD01089509
:101E3000EE0FFF1F0590F491E02D099481E090E0F2
:101E4000F8940C94480FFC018191861721F08823A7
:101E5000D9F7992708953197CF010895FB01519142
:101E60005523A9F0BF01DC014D9145174111E1F760
:101E700059F4CD010190002049F04D9140154111D8
:101E8000C9F3FB014111EFCF81E090E00197089584
:101E900010E0C8EAD0E004C0FE010E94180F2196AD
:0A1EA000C93AD107C9F7F894FFCF43
:101EAA00000000003B015906D30082010401E20050
:101EBA00F60000000000DA02C602EC02B802BF0215
:101ECA00BC02B90200000000F9015906EC02F8014F
:101EDA004D026502E00153494D39303020696E697F
:101EEA007469616C697A6174696F6E206572726F68
:101EFA0072002B4350494E3A2052454144590054EE
:101F0A00656D7065726174757265203D20006E6141
:101F1A006E00696E66006F766600204465677265BA
:101F2A00652043656C736975730A004E65656420A4
:101F3A00746F20636F6F6C20646F776E0043616CFF
:101F4A006C696E6720746F20696E666F726D0039F6
:101F5A0038787878787878303900436F6F6C2064F5
:101F6A006F776E002B434D47523A005475726E6973
:101F7A006E672066616E204F4E00457665727974F1
:101F8A0068696E672069732066696E650053494DFA
:101F9A0039303020696E697469616C697A61746973
:101FAA006F6E2073756363657373004F4B0D0A0080
:0A1FBA004F4B002B434D474C3A00FB
:107E0000112484B714BE81FFF0D085E080938100F7
:107E100082E08093C00088E18093C10086E0809377
:107E2000C20080E18093C4008EE0C9D0259A86E02C
:107E300020E33CEF91E0309385002093840096BBD3
:107E4000B09BFECF1D9AA8958150A9F7CC24DD24C4
:107E500088248394B5E0AB2EA1E19A2EF3E0BF2EE7
:107E6000A2D0813461F49FD0082FAFD0023811F036
:107E7000013811F484E001C083E08DD089C08234E0
:107E800011F484E103C0853419F485E0A6D080C0E4
:107E9000853579F488D0E82EFF2485D0082F10E0AE
:107EA000102F00270E291F29000F111F8ED06801E7
:107EB0006FC0863521F484E090D080E0DECF843638
:107EC00009F040C070D06FD0082F6DD080E0C81688
:107ED00080E7D80618F4F601B7BEE895C0E0D1E017
:107EE00062D089930C17E1F7F0E0CF16F0E7DF06D8
:107EF00018F0F601B7BEE89568D007B600FCFDCFD4
:107F0000A601A0E0B1E02C9130E011968C91119780
:107F100090E0982F8827822B932B1296FA010C0160
:107F200087BEE89511244E5F5F4FF1E0A038BF0790
:107F300051F7F601A7BEE89507B600FCFDCF97BE46
:107F4000E89526C08437B1F42ED02DD0F82E2BD052
:107F50003CD0F601EF2C8F010F5F1F4F84911BD097
:107F6000EA94F801C1F70894C11CD11CFA94CF0C13
:107F7000D11C0EC0853739F428D08EE10CD085E9AC
:107F80000AD08FE07ACF813511F488E018D01DD067
:107F900080E101D065CF982F8091C00085FFFCCF94
:107FA0009093C60008958091C00087FFFCCF809118
:107FB000C00084FD01C0A8958091C6000895E0E648
:107FC000F0E098E1908380830895EDDF803219F02E
:107FD00088E0F5DFFFCF84E1DECF1F93182FE3DFCA
:107FE0001150E9F7F2DF1F91089580E0E8DFEE27F6
:047FF000FF270994CA
:027FFE00040479
:0400000300007E007B
:00000001FF