:100000000C948E030C94B6030C94B6030C94E72363
:100010000C94E7230C94E7230C94B6030C94B603DA
:100020000C94B6030C94B6030C94B6030C94B6036C
:100030000C94B6030C94B6030C94B6030C94B6035C
:100040000C949D230C94B6030C94801A0C945A1AA9
:100050000C94B6030C94B6030C94B6030C94B6033C
:100060000C94B6030C94B603311146115B11701158
:10007000AD11C211D711EC114E120112211236121C
:10008000E615E615FE1517167F167F167F167F16E6
:10009000AF157F16C1157F162D165616EA2CF62CB5
:1000A000E12CE12CDC2C122D122DDC2C122D122D2A
:1000B000122D122D122D122D0E2DF61C711C711CDD
:1000C000881C9D1CF61CF61CF61CF61CF51CF61C68
:1000D000F51CF61CF51CF51CF61C434C4F53452033
:1000E0004F4B0D0A004552524F520D0A00414C52DF
:1000F0004541445920434F4E4E4543540D0A004359
:100100004F4E4E454354204641494C0D0A00434F43
:100110004E4E454354204F4B0D0A00222C00222CFA
:10012000220022544350002B43495053544152540F
:100130003D002B43495053534C3D002B4349504302
:100140004C4F53453D000D0A444154412041434327
:100150004550543A003E002B43495053454E443DD0
:10016000002B43495052584745543A002B434950BD
:1001700052584745543D322C002C22494E4954498F
:10018000414C22002C22434C4F53494E4722002C15
:1001900022434C4F53454422002C22434F4E4E45A0
:1001A0004354454422002B43495053544154555322
:1001B0003D002B43495052584745543A002B434980
:1001C0005052584745543D342C000D0A2B4352459C
:1001D000473A002B435245473F002B434946535271
:1001E0003B4530000D0A2B43474154543A002B4302
:1001F000474154543F00434C4F5345440D0A000DB2
:100200000A2B43495052584745543A006E6F0079C3
:100210006573005B5F534F434B45545D20557369D5
:100220006E672073656375726520544C532F53536A
:100230004C20636F6E6E656374696F6E3A20002E9A
:100240002E2E003A005B5F534F434B45545D2043D5
:100250006F6E6E656374696E6720746F2000417500
:100260007468204661696C65642120436865636B2E
:1002700020757365726E616D652C206465766963A7
:10028000652069642C206F7220646576696365203F
:1002900063726564656E7469616C732E00544849BD
:1002A0004E4745520041757468656E7469636174A8
:1002B0006564005448494E474552002044657669BC
:1002C00063653A20005B5448494E4745525D2041E2
:1002D000757468656E7469636174696E672E205504
:1002E0007365723A200054696D656F757421005F03
:1002F000534F434B4554004973206E6F7720636C16
:100300006F73656421005F534F434B455400457242
:10031000726F72207768696C6520636F6E6E6563BB
:1003200074696E6721005F534F434B455400436F20
:100330006E6E656374656421005F534F434B455493
:100340000043616E6E6F7420636F6E6E656374211F
:10035000004E4554574F524B00436F6E6E656374A9
:10036000656421004E4554574F524B0053746172DF
:1003700074696E6720636F6E6E656374696F6E2E4D
:100380002E2E004E4554574F524B004E4F5420498D
:100390004E5345525445440053494D2050554B004F
:1003A00053494D2050494E005245414459000D0AD1
:1003B0002B4350494E3A002B4350494E3F004530A5
:1003C0000026465A002B4346554E3D312C31002B1A
:1003D0004346554E3D300022002B4350494E3D22AE
:1003E0000043616E6E6F7420756E6C6F636B20538B
:1003F000494D21004E4554574F524B002B43474126
:1004000054543D30002B43495053485554002B431E
:10041000444E534346473D22382E382E382E38223C
:100420002C22382E382E342E3422002B43494653AA
:10043000523B4530002B4349494352002200222CB5
:100440002200222C22002B435354543D22002B43E4
:10045000495052584745543D31002B434950515360
:10046000454E443D31002B4349504D55583D3100D8
:100470002B43474154543D31002B53415042523D90
:10048000322C31002B53415042523D312C31002B44
:1004900043474143543D312C31002B434744434FA4
:1004A0004E543D312C224950222C22002B534150D6
:1004B00042523D332C312C22505744222C22002B07
:1004C00053415042523D332C312C22555345522238
:1004D0002C22002B53415042523D332C312C2241CF
:1004E000504E222C22002B53415042523D332C318E
:1004F0002C22436F6E74797065222C224750525320
:10050000220043616E6E6F7420636F6E6E6563745C
:1005100020746F2041504E21004E4554574F524B8E
:1005200000436F6E6E656374696E6720746F20415F
:10053000504E2E2E2E004E4554574F524B004E65B6
:1005400074776F726B20436F6E6E656374656421A0
:10055000004E4554574F524B0043616E6E6F7420EE
:10056000636F6E6E656374206E6574776F726B2156
:10057000004E4554574F524B0057616974696E677E
:1005800020666F72204E6574776F726B2E2E2E0070
:100590004E4554574F524B00556E6C6F636B696EEE
:1005A000672053494D2E2E2E20004E4554574F5252
:1005B0004B0043616E6E6F7420696E6974206D6FBD
:1005C00064656D2120497320697420636F6E6E65C8
:1005D000637465643F004E4554574F524B00496E5B
:1005E000697469616C697A696E67204D6F64656DC5
:1005F0002E2E2E004E4554574F524B0043616E6EC7
:100600006F7420636F6E6E65637420776974686FB2
:1006100075742073657474696E6720746865204111
:10062000504E21004E4554574F524B0043616E6E61
:100630006F7420726561642066726F6D20736F63E2
:100640006B657421005F534F434B45540057726FE5
:1006500074653A005448494E4745520045787065E4
:10066000637465643A005448494E47455200464118
:10067000494C004F4B005D00205B005B5448494EE5
:100680004745525D2057726974696E6720627974BC
:1006900065733A2000417661696C61626C65206225
:1006A000797465733A20005448494E4745520045D5
:1006B00052524F520D0A004F4B0D0A00000000002D
:1006C00000240027002A00000000080002010000AA
:1006D00003040700000000000000000000000025E7
:1006E0000028002B00000000002300260029000441
:1006F00004040404040404020202020202030303C9
:1007000003030301020408102040800102040810C2
:100710002001020408102000892D7B2D11241FBE0A
:10072000CFEFD8E0DEBFCDBF24E0AEE2B2E001C043
:100730001D92A330B207E1F712E0A0E0B1E0E8EFCC
:10074000F5E602C005900D92AE32B107D9F713E07D
:10075000CDE8D3E004C02197FE010E945830CC3888
:10076000D107C9F70E94EA280C94EF320C940000DC
:10077000DC01ED91FC910688F789E02D099591E067
:10078000811101C090E0892F0895CF93DF93EC0190
:10079000E881F9810084F185E02D0995892B11F418
:1007A0008D8901C081E0DF91CF910895DC011C9615
:1007B000ED91FC911D9780819181DC01ED91FC917F
:1007C0000680F781E02D09948FEF9FEF0895CF9376
:1007D000DF931F92CDB7DEB7DC01ED91FC9102886B
:1007E000F389E02D41E050E0BE016F5F7F4F099536
:1007F000019719F4898190E002C08FEF9FEF0F906D
:10080000DF91CF910895CF93DF931F92CDB7DEB7DD
:100810006983DC01ED91FC910280F381E02D41E0E0
:1008200050E0BE016F5F7F4F09950F90DF91CF9130
:100830000895089580E090E00895CB010C944A312A
:10084000CB010C94B5300F931F93CF93DF93EC0142
:1008500060E070E0CB010E9457234E856BE371E0AE
:100860008C859D850E94FD261D8A00E010E020E019
:1008700030E04FEA56E067EB76E08C859D850E947C
:100880009D1EFE01E75AFF4F11821082C95ADF4FA9
:1008900019821882DF91CF911F910F910895EF92E5
:1008A000FF920F931F93CF93DF93CDB7DEB72897B7
:1008B0000FB6F894DEBF0FBECDBF7C018B016AEC92
:1008C00071E0CE0101964F8358870E94B42060E109
:1008D00070E0CE0101960E94CB1FD80112966C9158
:1008E000CE0101960E942020CE0101960E943D2754
:1008F000F8016381CE0101960E942020CE0101966D
:100900000E943D27D80114966C91CE0101960E9459
:100910002020CE0101960E943D27F8016581CE017D
:1009200001960E942020D701ED91FC9169817A8186
:100930000088F189E02D4F815885C70109958C0108
:10094000CE0101960E947720C80128960FB6F89430
:10095000DEBF0FBECDBFDF91CF911F910F91FF90F2
:10096000EF900895CF92DF92EF92FF920F931F9333
:10097000CF93DF93DC0112962D913C911397CD918B
:10098000DC912D30310561F5209709F45AC00A81B8
:100990001B81E0910001F09101010115110509F49D
:1009A00041C0D8011896CD90DC9019976D917D913A
:1009B0007D010280F381E02D80E091E00995C7017F
:1009C0000E94B204E0910001F09101010280F381E4
:1009D000E02DB80180E091E00995DB82CA82D7CF93
:1009E0002E303105D9F4209761F10A811B81011560
:1009F0001105A1F0F801E680F780C8010E94B20459
:100A0000E0910001F09101010280F381E02DB80135
:100A100080E091E00995FB82EA82E7CFE091000156
:100A2000F09101010280F381E02DBE0180E091E0B0
:100A3000DF91CF911F910F91FF90EF90DF90CF90BA
:100A40000994DF91CF911F910F91FF90EF90DF906C
:100A5000CF9008952F923F924F925F926F927F9224
:100A60008F929F92AF92BF92CF92DF92EF92FF92BE
:100A70000F931F93CF93DF93CDB7DEB7A0970FB639
:100A8000F894DEBF0FBECDBF1C012A013B013C8B99
:100A90002B8B1E8B0D8BF88EEF8ADA8EC98EBC8E57
:100AA000AB8E6AEC71E0CE010D960E94B42060E43A
:100AB00070E0CE010D960E94CB1F0E9491234B0146
:100AC0005C0160E070E0CB010E945723D1018D9161
:100AD0009C91DC01ED91FC910084F185E02D09955C
:100AE000181619060CF0C3C1D1018D919C91DC013F
:100AF000ED91FC910284F385E02D099518161906F5
:100B00002CF789831A8241E050E0BE016F5F7F4F6E
:100B1000CE010D960E94F21FEB89FC89EF2B29F480
:100B20008D899E89892BE1F416C06B897C89CE0161
:100B300001960E947C20BE016F5F7F4FCE010D9613
:100B40000E94AB1F182FCE0101960E94772011231F
:100B500039F311E0E2C1AF89B88DAB2BE1F416C0D7
:100B60006D897E89CE0101960E947C20BE016F5F57
:100B70007F4FCE010D960E94AB1F182FCE0101961C
:100B80000E947720112339F312E0C7C1E98DFA8D55
:100B9000EF2BE1F416C06F89788DCE0101960E948B
:100BA0007C20BE016F5F7F4FCE010D960E94AB1F70
:100BB000182FCE0101960E947720112339F313E0FC
:100BC000ACC18B8D9C8D892B61F516C0698D7A8D9A
:100BD000CE0101960E947C20BE016F5F7F4FCE0147
:100BE0000D960E94AB1F182FCE0101960E94772010
:100BF000112339F314E091C16FEF71E0CE0101963A
:100C00000E947C20BE016F5F7F4FCE010D960E9437
:100C1000AB1F182FCE0101960E947720111117C02B
:100C200060C06B8D7C8DCE0101960E947C20BE0140
:100C30006F5F7F4FCE010D960E94AB1F182FCE0124
:100C400001960E9477201123B9F215E066C1D10107
:100C50006D917C914CE2CE0107960E941F21CE013E
:100C600007960E94A01F613071058105910561F50D
:100C7000F101608171814AE0CE0101960E941F213D
:100C8000CE0101960E94A01F6B017C01CE0101964E
:100C90000E947720F5E0CF16D10478F48FEFC81AC0
:100CA000D80ACC0CDD1CF101EC0DFD1D0190F0818A
:100CB000E02D309711F091E0968B6AEC71E0CE0157
:100CC0000D960E944B2008C04B855C856F8178850E
:100CD000CE010D960E94F21FCE0107960E9477204A
:100CE000F5CE66EF71E0CE0101960E947C20BE0138
:100CF0006F5F7F4FCE010D960E94AB1F182FCE0164
:100D000001960E947720112309F4E0CE09891A89FF
:100D10000850110968EC71E0CE0101960E94B420E0
:100D20002D813E812115310591F189899A8900979C
:100D300071F18217930758F10817190718F08C0101
:100D400001501109ED84FE8449815A81C701CC24E8
:100D5000CA94DD24DA949701200F311F2817390730
:100D6000C8F0BA012F8F38A34D8F5E8F0E94D53205
:100D70002F8D38A14D8D5E8D009761F0BC016E19ED
:100D80007F090617170708F06B010196E7CF0FEFF1
:100D90001FEF01C08601CE0101960E9477207801E5
:100DA000A2E0EA0EF11C89899A89E816F90678F41E
:100DB000CD84DE846CE270E0C6018E0D9F1D0E9422
:100DC000BA32009721F08C010C191D0902C00FEFF7
:100DD0001FEF0E151F0528F49E2D8F2D7801092F6A
:100DE000182F6AEC71E0CE0101960E94B420898927
:100DF0009A89E816F906C0F48017910708F48C0167
:100E0000ED85FE85E00FF11FD08010826D857E8517
:100E10006E0D7F1DCE0101960E944B208D859E8513
:100E2000FC01E00FF11FD082CE0101960E94A01FAD
:100E30006B017C01CE0101960E947720B5E0CB16B4
:100E4000D10470F4EFEFCE1ADE0ACC0CDD1CF101F8
:100E5000EC0DFD1D0190F081E02D309709F0158A11
:100E60006AEC71E0CE010D960E944B202FCE0E94BD
:100E70009123DC01CB0188199909AA09BB098415C2
:100E80009505A605B70508F41CCEED84FE84E11493
:100E9000F104E1F109891A8901151105B9F1570128
:100EA0006501BFEFAB1ABB0AF6018081082E000C6A
:100EB000990B0E94772F892B99F7015011090E0D7C
:100EC0001F1DD8018C91082E000C990B0E94772FC2
:100ED000892B79F4A8014F5F5F4F4C195D095A8B3C
:100EE000498BEC14FD0458F4B601C7010E94B132DD
:100EF00006C00C151D0570F301501109E2CFED85F8
:100F0000FE8589899A89E80FF91F10826AEC71E0E1
:100F1000CE010D960E944B2010E0CE010D960E944E
:100F20007720812FA0960FB6F894DEBF0FBECDBFFD
:100F3000DF91CF911F910F91FF90EF90DF90CF90B5
:100F4000BF90AF909F908F907F906F905F904F90E9
:100F50003F902F9008956F927F928F929F92AF92C1
:100F6000BF92CF92DF92EF92FF920F931F93CF9396
:100F7000DF9300D000D000D0CDB7DEB74C016C01BC
:100F8000F12CD6011296AD90BC901397A114B10428
:100F900009F46CC0F5018689882309F467C0168AB4
:100FA0004F2D6DEB71E0C4010E94FD2600E010E0C2
:100FB00020E030E04FEA56E062EB71E0C4010E94AD
:100FC0009D1E813051F1D60112966D907C90139741
:100FD0004F2D66EA71E0C4010E94FD2609E711E089
:100FE00024E831E04FE851E069E971E0C4010E9472
:100FF0009D1EE82E00E010E020E030E04FEA56E0D1
:1010000067EB76E0C4010E949D1E91E0E91290E03A
:10101000F301958B612C712C26C0C4010E948C2792
:10102000C4010E948C27D4016D917C914AE0CE01CD
:1010300001960E941F21CE0101960E94A01F3B0134
:10104000CE0101960E94772000E010E020E030E021
:101050004FEA56E067EB76E0C4010E949D1E6114E2
:10106000710409F4B0CFF501708A6786F2E0CF0E03
:10107000D11CF39485E0F81284CFD4018D919C911A
:10108000DC01ED91FC910084F185E02D0995892B1F
:1010900091F0A12CB12CC12CD12CE12CF12C00E031
:1010A00010E020E030E04AE050E060E070E0C40191
:1010B0000E942A05E2CF26960FB6F894DEBF0FBE37
:1010C000CDBFDF91CF911F910F91FF90EF90DF90F7
:1010D000CF90BF90AF909F908F907F906F9008952A
:1010E0002F923F924F925F926F927F928F929F9238
:1010F000AF92BF92CF92DF92EF92FF920F931F9326
:10110000CF93DF93CDB7DEB72E970FB6F894DEBF3F
:101110000FBECDBF7C011B015C874B8760E070E098
:10112000CB010E945723D7011C968D919C911D974E
:101130000E94AB07412C512CF701E95AFF4FFA8767
:10114000E987C701875A9F4F98878F83D7015796A2
:10115000BE87AD87EB85FC854E165F0608F01CC187
:10116000D70155968C91882309F416C1E985FA8533
:1011700000811181AF81B8858D919C91081B190B5D
:1011800017FF02C0005C1F4F8B859C858419950951
:101190008017910708F48C010115110509F441C06D
:1011A00048013101EF81F885A080B180A985BA8519
:1011B0008D919C918A199B0997FF02C0805C9F4F7B
:1011C000009729F4200E311E400E511EC3CF20E49B
:1011D00030E02A193B09582D492D2815390514F4FA
:1011E000522F432FC52ED42E8C159D050CF46C0167
:1011F0006D857E856A0D7B1DA601C3010E94B132FB
:10120000AC0CBD1CBFE3AB22BB24EF81F885B182DF
:10121000A0828C189D086C0C7D1C8114910491F2A5
:10122000C1CFD7011C968D919C911D970E94AB0751
:10123000F70187859089892B09F4AEC09684AF8128
:10124000B8850D911C91E985FA8580819181081BF3
:10125000190B1016110614F0005C1F4FD7011C96D5
:10126000CD90DC901D97015011092CE2492D6CE6C0
:1012700071E0C6010E94362600E010E020E030E078
:101280004FEA56E061E671E0C6010E949D1E813082
:1012900009F060CFC6010E948C27C6010E948C27EE
:1012A000F601608171814CE2CE0101960E941F21FE
:1012B000CE0101960E94A01F3B01CE0101960E9423
:1012C00077205601A90CB11CA90CB11CD5011296AE
:1012D0000D911C911397F601608171814AE0CE0156
:1012E00001960E941F21CE0101960E94A01FD801E5
:1012F00050967C936E931F97CE0101960E947720A3
:1013000000E010E006151705D8F5F60180819181FF
:10131000DC01ED91FC910084F185E02D0995892B8C
:1013200031F460E070E0CB010E945723EECFF6016C
:1013300080819181DC01ED91FC910284F385E02DA7
:101340000995F501428153814A01F7E58F0E911C01
:10135000F401A081B1819D012F5F3F4F2F7333278F
:101360003296608171812617370739F0A40FB51FB7
:1013700057968C93D4012D933C930F5F1F4FC2CF90
:1013800000E010E020E030E04FEA56E067EB76E066
:10139000C6010E949D1EDECEC2012E960FB6F894A5
:1013A000DEBF0FBECDBFDF91CF911F910F91FF9098
:1013B000EF90DF90CF90BF90AF909F908F907F90F5
:1013C0006F905F904F903F902F9008958F929F92D3
:1013D000AF92BF92EF92FF920F931F93CF93DF9341
:1013E000EC0160E070E0CB010E9457238E01095AA6
:1013F0001F4F7E0129E5E20EF11CF80120813181A9
:10140000F70180819181281B390B37FF3FC0203CB9
:10141000FFEF3F0751F58D898823E9F00E94912362
:1014200089889A88AB88BC88DC01CB018819990926
:10143000AA09BB09853F9140A105B10540F081E0B3
:101440008E8B0E949123698B7A8B8B8B9C8B8C85E6
:101450009D850E94AB07F80120813181F7018081D1
:101460009181281B390B37FF02C0205C3F4F8F85CD
:101470009889820F931FDF91CF911F910F91FF9059
:10148000EF90BF90AF909F908F90089521153105F8
:1014900011F2EDCF8F929F92AF92BF92CF92DF92D7
:1014A000EF92FF920F931F93CF93DF9300D000D062
:1014B00000D0CDB7DEB76C014B015A0160E070E09F
:1014C000CB010E945723D6011C968D919C911D97AC
:1014D0000E94AB07F601E484F58485012CE2468581
:1014E00067E571E0C7010E94362600E010E020E0C9
:1014F00030E04FEA56E065E571E0C7010E949D1EAD
:10150000813019F000E010E037C0D7018D919C9137
:10151000DC01ED91FC910280F381E02DA501B40185
:101520000995F70180819181DC01ED91FC910680A4
:10153000F781E02D099500E010E020E030E04FEA6F
:1015400056E066E471E0C7010E949D1E8130D1F62D
:10155000C7010E948C27F701608171814AE0CE01AA
:1015600001960E941F21CE0101960E94A01F8B01AF
:10157000CE0101960E947720C80126960FB6F894F6
:10158000DEBF0FBECDBFDF91CF911F910F91FF90B6
:10159000EF90DF90CF90BF90AF909F908F90089585
:1015A0008F929F92AF92BF92CF92DF92EF92FF9273
:1015B0000F931F93CF93DF934C016B017A01DC01F2
:1015C000ED91FC910488F589E02D099560E070E0CB
:1015D000CB010E945723F401E75AFF4F118210827A
:1015E000329711821082F401B684C485D5856BECE4
:1015F00071E0888199810E94E82862E371E0888126
:1016000099810E94AF2860E070E0888199810E94F2
:10161000432768EC71E0888199810E94E8288881DD
:101620009981DC01ED91FC910680F781E02D09950F
:1016300060E070E0CB010E94572300E010E020E062
:1016400030E04FEA56E067EB76E0CE010E949D1E47
:101650006BEC71E0888199810E94E82867E271E073
:10166000888199810E94AF284B2D50E060E070E0A6
:101670002AE0888199810E9456216CE288819981B3
:101680000E94B52162E271E0888199810E94AF28B1
:101690006EE171E0888199810E94AF28B60188814E
:1016A00099810E94E8286BE171E0888199810E940C
:1016B000AF28A70160E070E02AE0888199810E944C
:1016C000562168EC71E0888199810E94E828888120
:1016D0009981DC01ED91FC910680F781E02D09955F
:1016E00060E070E0CB010E9457238AEDA82E80E0D5
:1016F000B82E95EEC92E90E0D92E2DEEE22E20E0E8
:10170000F22E0FEF10E02EE031E048EF54E261E0FE
:1017100070E0CE010E942A0591E0813009F090E04E
:10172000F401958B892F90E0DF91CF911F910F915C
:10173000FF90EF90DF90CF90BF90AF909F908F90F1
:1017400008958F929F92AF92BF92EF92FF920F9364
:101750001F93CF93DF9300D000D000D0CDB7DEB77A
:101760007C016EEE71E00E94D42600E010E020E0E3
:1017700030E04FEA56E064EE71E0C7010E949D1E22
:10178000813089F5F701608171814AE0CE010196CF
:101790000E941F21CE0101960E94A01F4B015C01F7
:1017A000CE0101960E94772000E010E020E030E0BA
:1017B0004FEA56E067EB76E0C7010E949D1E8A94CF
:1017C000892889F46AED71E0C7010E94D42620E0DF
:1017D00030E04FEA56E067EB76E0C7010E949D1EBD
:1017E00091E0813009F090E0892F26960FB6F894A9
:1017F000DEBF0FBECDBFDF91CF911F910F91FF9044
:10180000EF90BF90AF909F908F900895AF92BF924E
:10181000CF92DF92EF92FF920F931F93CF93DF93BC
:1018200000D000D000D0CDB7DEB75C0163ED71E031
:101830000E94D42600E010E020E030E04FEA56E0BD
:101840006AEC71E0C5010E949D1E813019F5C50149
:101850000E948C27F501608171814AE0CE010196DA
:101860000E941F21CE0101960E94A01F6B017C01E6
:10187000CE0101960E94772020E030E04FEA56E04A
:1018800067EB76E0C5010E949D1E9601213031056F
:1018900049F002C024E030E081E02530310519F044
:1018A00080E001C081E026960FB6F894DEBF0FBE3F
:1018B000CDBFDF91CF911F910F91FF90EF90DF90FF
:1018C000CF90BF90AF90089580E00895089581E093
:1018D00008950F931F93CF93DF93EC01E98DFA8D59
:1018E0000190F081E02D00891189E881F98100885B
:1018F000F189E02D0995811103C040E752E602C04D
:1019000042E752E66EEC71E0898D9A8DF8010995F7
:1019100021E0892B09F420E0822FDF91CF911F91E4
:101920000F91089581E0089581E00895CF93DF93AA
:10193000EC01E881F9810288F389E02D67E070E02D
:101940000995898D9A8DDC01ED91FC910488F589CA
:10195000E02D0995E881F9810288F389E02D66E0A0
:1019600070E0CE010995CE01DF91CF910C947312F6
:101970000F931F93CF93DF93FC01228133812F308C
:10198000310519F5EC01E4EDF6E08491E0E1F7E0D2
:101990000491ECEFF6E01491112339F181110E94CA
:1019A000C222E12FF0E0EE0FFF1FEB51F94FA5919E
:1019B000B491EC91E023C9F085E090E09B838A83A9
:1019C000DF91CF911F910F9108952530310519F0C6
:1019D0002830310511F461E001C060E08DE0DF9155
:1019E000CF911F910F910C94EB2286E090E0E6CF0F
:1019F000CF93DF93EC01AF96CE010E94060C8823B3
:101A000029F0CE01DF91CF910C94A10B80E0DF9102
:101A1000CF9108952F923F924F925F926F927F9253
:101A20008F929F92AF92BF92CF92DF92EF92FF92EE
:101A30000F931F93CF93DF9300D01F92CDB7DEB7E4
:101A40004C01DC0197968D919C919897892BC1F45C
:101A50006DED71E081EA92E00E94E82864E276E0B0
:101A600081EA92E00E94AF286FED71E081EA92E096
:101A70000E94E8288CEF95E00E9479271982CCC358
:101A8000F401BF96FB83EA83CF010E94060C898391
:101A90008111D9C06DED71E081EA92E00E94E828E1
:101AA00064EF75E081EA92E00E94AF286FED71E08B
:101AB00081EA92E00E94E8288EED95E00E94792765
:101AC0008A819B810E94BA1E882309F4A8C26FEC08
:101AD00073E08A819B810E94D426A12CB12CC12C59
:101AE000D12CE12CF12C0FEA16E027EB36E040E197
:101AF00057E260E070E08A819B810E942A05813074
:101B000009F08DC265EC73E08A819B810E94D42626
:101B100027EB36E040E157E260E070E08A819B818C
:101B20000E942A05813009F07AC268EB7BE080E0F0
:101B300090E00E9457238A819B810E94BA1E8823CD
:101B400009F46DC261EC73E08A819B810E94D42606
:101B500000E010E020E030E04FEA56E067EB76E08E
:101B60008A819B810E949D1E6EEB73E08A819B811E
:101B70000E94D42620E030E04FEA56E067EB76E0A2
:101B80008A819B810E949D1E813009F048C20E947B
:101B900091232B013C010E949123DC01CB0184198C
:101BA0009509A609B70980319742A105B10508F04A
:101BB0004BC267EB73E08A819B810E94D42600E0D0
:101BC00010E020E030E04FEA56E06EEA73E08A81F0
:101BD0009B810E949D1E813039F068EE73E080E0A9
:101BE00090E00E945723D7CF0BE813E028E933E0B9
:101BF00040EA53E068EA73E08A819B810E949D1E5F
:101C000000E010E020E030E04FEA56E067EB76E0DD
:101C10008A819B810E949D1E17C26DED71E081EA51
:101C200092E00E94E82861E575E081EA92E00E9476
:101C3000AF286FED71E081EA92E00E94E8288EE320
:101C400095E00E9479278A819B810E94A10B89835C
:101C5000882319F0F1E0F983DFC26DED71E081EACC
:101C600092E00E94E82866E375E081EA92E00E9433
:101C7000AF286FED71E081EA92E00E94E82881E2EE
:101C800095E00E947927D4019B964D905C909C979B
:101C900099966D907C909A9797962D903C909897F6
:101CA00065E074E08A819B810E94D426A12CB12C2E
:101CB000C12CD12CE12CF12C0FEA16E027EB36E0F9
:101CC00040E65AEE60E070E08A819B810E942A051E
:101CD000813081F46CEF73E08A819B810E94D4266D
:101CE00027EB36E040E65AEE60E070E08A819B81A7
:101CF0000E942A0566EE74E08A819B810E94D426A8
:101D000000E010E020E030E04FEA56E067EB76E0DC
:101D10008A819B810E949D1E22E2A10163ED74E0F5
:101D20008A819B810E948C2620E030E04FEA56E0B9
:101D300067EB76E08A819B810E949D1E611471048D
:101D4000B1F0F3018081882391F022E2A3016FEBCF
:101D500074E08A819B810E948C2620E030E04FEA6B
:101D600056E067EB76E08A819B810E949D1E4114BC
:101D70005104C1F0D2018C918823A1F022E2A2018A
:101D80006CEA74E08A819B810E948C2600E010E05E
:101D900020E030E04FEA56E067EB76E08A819B81F5
:101DA0000E949D1E22E2A1016AE974E08A819B8162
:101DB0000E948C2600E010E020E030E04FEA56E080
:101DC00067EB76E08A819B810E949D1E6FE874E03C
:101DD0008A819B810E94D426A12CB12CC12CD12CAC
:101DE000E12CF12C0FEA16E027EB36E040E65AEE44
:101DF00060E070E08A819B810E942A0564E874E0BB
:101E00008A819B810E94D42627EB36E048E05CE47F
:101E100061E070E08A819B810E942A0569E774E095
:101E20008A819B810E94D42627EB36E040E355E768
:101E300060E070E08A819B810E942A05813009F070
:101E4000D5C160E774E08A819B810E94D42627EB8C
:101E500036E040E65AEE60E070E08A819B810E94A5
:101E60002A05813009F0C2C166E674E08A819B814F
:101E70000E94D42600E010E020E030E04FEA56E077
:101E800067EB76E08A819B810E949D1E813009F07C
:101E9000ADC16AE574E08A819B810E94D42620E06E
:101EA00030E04FEA56E067EB76E08A819B810E9442
:101EB0009D1E813009F09AC16EE474E08A819B8195
:101EC0000E94D42620E030E04FEA56E067EB76E04F
:101ED0008A819B810E949D1E813009F087C16BEC35
:101EE00071E0F40187A590A90E94E82866E474E0F7
:101EF000D4019F968D919C91D0970E94AF28B101FB
:101F0000F40187A590A90E94E82862E474E0D40156
:101F10009F968D919C91D0970E94AF28B301F401B8
:101F200087A590A90E94E8286EE374E0D4019F96EB
:101F30008D919C91D0970E94AF28B201F40187A5A2
:101F400090A90E94E8286CE374E0D4019F968D91DB
:101F50009C91D0970E94AF2868EC71E0F40187A5AE
:101F600090A90E94E828D4019F968D919C91D097CA
:101F7000DC01ED91FC910680F781E02D099560E090
:101F800070E0CB010E9457230FEA16E027EB36E002
:101F900040E65AEE60E070E08A819B810E942A054B
:101FA000813009F023C165E374E08A819B810E943E
:101FB000D42627EB36E040E65AEE60E070E08A81F6
:101FC0009B810E942A05813009F010C16BE274E008
:101FD0008A819B810E94D42627EB36E040E157E2BC
:101FE00060E070E08A819B810E942A05813009F0BF
:101FF000FDC06EE074E08A819B810E94D42600E0DF
:1020000010E020E030E04FEA56E067EB76E08A81AE
:102010009B810E949D1E813009F0E8C01BCE6DEDB2
:1020200071E081EA92E00E94E82866ED75E081EABD
:1020300092E00E94AF286FED71E081EA92E00E9489
:10204000E82882EB95E0E6C0F40185A596A5892BEA
:1020500009F483C06DED71E081EA92E00E94E82806
:102060006AEA75E081EA92E00E94AF286FED71E0C4
:1020700081EA92E00E94E82868E975E081EA92E04E
:102080000E94AF28D4019D966D917C919E9781EA24
:1020900092E00E94D32868EC71E081EA92E00E940D
:1020A000D328F40165A476A46BEC71E087A590A910
:1020B0000E94E82869ED73E0D4019F968D919C9170
:1020C000D0970E94AF28B301F40187A590A90E9480
:1020D000E82867ED73E0D4019F968D919C91D0978D
:1020E0000E94AF2868EC71E0F40187A590A90E94D6
:1020F000E828D4019F968D919C91D097DC01ED91B9
:10210000FC910680F781E02D099560E070E0CB013D
:102110000E94572300E010E020E030E04FEA56E054
:1021200067EB76E08A819B810E949D1E8130A9F039
:102130006DED71E081EA92E00E94E82864EF73E0BF
:1021400081EA92E00E94AF286FED71E081EA92E0AF
:102150000E94E82881EE93E05DC06DED71E081EAB8
:1021600092E00E94E82860E975E081EA92E00E942E
:10217000AF286FED71E081EA92E00E94E82889E7DC
:1021800095E00E9479270E9491232B013C010E9437
:102190009123DC01CB0184199509A609B709883977
:1021A0009A43A105B10568F48A819B810E94060CBF
:1021B000811133CD6AEF70E080E090E00E945723F8
:1021C000E6CF6DED71E081EA92E00E94E82861E7D8
:1021D00075E081EA92E00E94AF286FED71E081EA3C
:1021E00092E00E94E82889E595E014C06DED71E069
:1021F00081EA92E00E94E82869E175E081EA92E0D4
:102200000E94AF286FED71E081EA92E00E94E82819
:1022100082E095E00E94792789810F900F900F90BE
:10222000DF91CF911F910F91FF90EF90DF90CF90B2
:10223000BF90AF909F908F907F906F905F904F90E6
:102240003F902F9008950C944A31CF93DF936C30D8
:10225000710508F023C1FB01EC01EC5CFF4F0C940D
:1022600058306DED71E081EA92E00E94E82863E861
:1022700073E081EA92E00E94AF286FED71E081EA9D
:1022800092E00E94E8288CE693E004C16DED71E0D5
:1022900081EA92E00E94E82864E673E081EA92E035
:1022A0000E94AF286FED71E081EA92E00E94E82879
:1022B00089E593E0EFC06DED71E081EA92E00E9464
:1022C000E82861E573E081EA92E00E94AF286FEDB3
:1022D00071E081EA92E00E94E82881E493E0DAC0AC
:1022E00065E472E081EA92E00E94AF286EEC71E052
:1022F00081EA92E00E94E82863E472E081EA92E0D9
:102300000E94AF28E881F9810088F189E02DCE0193
:102310000995811103C060E772E602C062E772E6C8
:1023200081EA92E00E9443278FE392E00E9479279E
:1023300063E172E081EA92E00E94AF28E881F981CE
:102340000088F189E02DCE010995811103C08CE050
:1023500092E0A0C08FE092E09DC06DED71E081EA57
:1023600092E00E94E82869E373E081EA92E00E942B
:10237000AF286FED71E081EA92E00E94E8288EE2DA
:1023800093E088C06DED71E081EA92E00E94E82858
:1023900066E273E081EA92E00E94AF286FED71E09F
:1023A00081EA92E00E94E8288EE093E073C06DED30
:1023B00071E081EA92E00E94E82866E073E081EA39
:1023C00092E00E94AF286FED71E081EA92E00E94F6
:1023D000E82887EF92E05EC06DED71E081EA92E05F
:1023E0000E94E8286FEE72E081EA92E00E94AF2836
:1023F0006FED71E081EA92E00E94E82886EE92E0BB
:1024000049C065EC72E081EA92E00E94AF286B8DD2
:102410007C8D81EA92E00E94E8286BEB72E081EA11
:1024200092E00E94AF286D8D7E8D81EA92E00E943D
:10243000D32868EC71E081EA92E0DF91CF910C94AF
:10244000D3286DED71E081EA92E00E94E82863EB09
:1024500072E081EA92E00E94AF286FED71E081EABC
:1024600092E00E94E82885EA92E014C06DED71E0E8
:1024700081EA92E00E94E8286DE972E081EA92E048
:102480000E94AF286FED71E081EA92E00E94E82897
:102490008EE592E0DF91CF910C947927DF91CF9177
:1024A00008951F93CF93DF93EC0169A17AA1611581
:1024B0007105A1F04BA15CA14115510579F00E9475
:1024C000B313182F89A19AA10E944A311AA219A206
:1024D0001CA21BA21EA21DA2812F01C081E0DF91C0
:1024E000CF911F91089520915602309157021216F4
:1024F0001306FCF4DC015596ED91FC91569730974C
:10250000A1F01386128684859585A685B785892BCB
:102510008A2B8B2B11F021503109148615861686D3
:1025200017860280F381E02DEACF30935702209383
:10253000560208950F931F93CF93DF938C01EA0106
:10254000DC0114968D919C911597DC01ED91FC9125
:102550000480F581E02D0995882339F0F801228166
:102560003381C20FD31FD383C283DF91CF911F91D9
:102570000F9108950F931F93CF93DF938C01EA017E
:10258000DC0114968D919C911597DC01ED91FC91E5
:102590000680F781E02D20E00995882339F0F801C5
:1025A00022813381C20FD31FD383C283DF91CF91A6
:1025B0001F910F910895FC0122813381420F531F17
:1025C0005383428381E00895CF93C0E0FB01EC0F79
:1025D000F11D2081CF5F27FDF9CFDC01ED91FC914A
:1025E0004C2F50E00190F081E02D09958C2FCF9178
:1025F0000895FC0122813381420F531F538342838C
:1026000081E00895FC0122813381420F531F5383DF
:10261000428381E008952F923F924F925F926F9292
:102620007F928F929F92AF92BF92CF92DF92EF9262
:10263000FF920F931F93CF93DF9300D000D0CDB7BD
:10264000DEB79A8389834B016A010E9491232B0193
:102650003C011C821B824B815C814C155D0508F09E
:102660004DC086012B813C81021B130BE981FA814D
:10267000218C328C5901A80CB91CE12CF12CE016EC
:10268000F10631F0C1010E94EF2097FF0BC08701D6
:102690002B813C81200F311F3C832B8310161106A8
:1026A000D4F207C0F50181935F01FFEFEF1AFF0A33
:1026B000E6CF0E949123641575058605970571F094
:1026C0000E949123DC01CB0184199509A609B70961
:1026D00080319742A105B105B0F4BDCF0E9491238E
:1026E000A3019201261B370B480B590BDA01C901D4
:1026F00080319742A105B10530F4ADCF81E04C1592
:102700005D05B9F417C06DED71E081EA92E00E94B9
:10271000E82865E476E081EA92E00E94AF286FED58
:1027200071E081EA92E00E94E8288CE296E00E9443
:10273000792780E00F900F900F900F90DF91CF914D
:102740001F910F91FF90EF90DF90CF90BF90AF90CF
:102750009F908F907F906F905F904F903F902F90C1
:1027600008950C944A31EF92FF920F931F93CF93E9
:10277000DF93EC017B018A016BE776E081EA92E06E
:102780000E94AF28A80160E070E02AE081EA92E0B0
:102790000E945621898D9A8DDC01ED91FC91028079
:1027A000F381E02DA801B70109957C01C1E08017F4
:1027B000910709F0C0E068E776E081EA92E00E94C4
:1027C000AF28C11103C06EE676E002C063E776E091
:1027D00081EA92E00E94AF2886E796E00E9479277E
:1027E000C11136C06DED71E081EA92E00E94E828E7
:1027F00066E676E081EA92E00E94AF286FED71E034
:1028000081EA92E00E94E8286CE576E081EA92E0B5
:102810000E94AF28C8010E949F216DED71E081EAFE
:1028200092E00E94E82864E576E081EA92E00E9466
:10283000AF286FED71E081EA92E00E94E8286DE434
:1028400076E081EA92E00E94AF28C7010E949F21B2
:102850008C2FDF91CF911F910F91FF90EF900895F2
:10286000DF92EF92FF920F931F93CF93DF93EC01D0
:102870007B018A01D22E452B09F44EC04DA15EA1E9
:102880008BA19CA1800F911F48175907A8F561E003
:1028900070E098012F713327232B11F460E070E072
:1028A000C80125E0969587952A95E1F7860F971F31
:1028B00035E0880F991F3A95E1F7BC01640F751F49
:1028C0007EA36DA389A19AA10E94E231009719F01D
:1028D0009AA389A311C0CE010E945112882349F105
:1028E000A801B701CE01DF91CF911F910F91FF9009
:1028F000EF90DF900C94B31329A13AA18BA19CA176
:10290000A801B701820F931F0E94B1328BA19CA135
:10291000080F191F1CA30BA3DD2051F0CE01DF917E
:10292000CF911F910F91FF90EF90DF900C94511277
:1029300081E0DF91CF911F910F91FF90EF90DF9099
:1029400008950895CF93DF93EC0188859985892BAD
:1029500031F40E94391D9987888781E08A878885AC
:102960009985DF91CF910895CF93DF93EC018C810E
:102970009D810E94221D8E819F810E94221D8A8539
:10298000882331F088859985DF91CF910C94221DA1
:10299000DF91CF9108952F923F924F925F926F9265
:1029A0007F928F929F92AF92BF92CF92DF92EF92DF
:1029B000FF920F931F93CF93DF9300D01F92CDB759
:1029C000DEB75C01F22EE32ED42EC52E962E872E76
:1029D000E02FEF7798014F2D5E2D6D2D7C2D892DE9
:1029E000982D07E00E94793019012A013B018A8362
:1029F0009B838901F42EE52CD62EC72C982E892E88
:102A0000442D552D662D772DA0E00E94953009F0BC
:102A1000E068E983D501ED91FC910190F081E02D12
:102A200041E050E0BE016F5F7F4FC5010995910104
:102A3000A201B3018A819B81A0E00E94953041F6FA
:102A40000F900F900F90DF91CF911F910F91FF90FA
:102A5000EF90DF90CF90BF90AF909F908F907F903E
:102A60006F905F904F903F902F900895CF92DF929C
:102A7000EF92FF920F931F93CF93DF936115710530
:102A800029F1EB016C01FB0101900020E9F731977E
:102A90007F01E61AF70A870120E030E040E050E0CD
:102AA00060E070E00E94CB14D601ED91FC910190A2
:102AB000F081E02DA701BE01C601DF91CF911F91EA
:102AC0000F91FF90EF90DF90CF900994DF91CF911D
:102AD0001F910F91FF90EF90DF90CF900895EF92AC
:102AE000FF920F931F93CF93DF937C01FB01C08173
:102AF000D181209779F0FE01619171918F01C70119
:102B00000E943615B801C7010E9491150E80DF8121
:102B1000C02DEFCFDF91CF911F910F91FF90EF90DC
:102B20000895CF92DF92EF92FF920F931F93CF936E
:102B3000DF9300D000D000D0CDB7DEB77C016B01B1
:102B4000DB0112964D915C911397FA013197EE30AB
:102B5000F10508F0D4C0E05CFF4F0C945830FB0145
:102B6000C080D1800AE410E020E030E040E050E096
:102B700060E070E00E94CB14B601C7010E943615D8
:102B8000CFC00AE510E020E030E040E050E060E037
:102B900070E00E94CB14D701ED91FC91008111816E
:102BA000F601C080D180C6010E94A924B601C701E8
:102BB0002D833E830E94E412B601680F711D2D81A2
:102BC000422F3E81532FC701F8012FC09A0140E0E8
:102BD00050E060E070E080E090E003E00E945E3052
:102BE00089019A01AB01BC01C7010E94CB14D60137
:102BF0006D917C91C7010E94E41292C0FB01C080DC
:102C0000D1800DE110E020E030E040E050E060E0F5
:102C100070E00E94CB14D701ED91FC910190F081FE
:102C2000E02D44E050E0B601C701099579C0FB01F1
:102C3000C080D18001E210E020E030E040E050E0D0
:102C400060E070E00E94CB14D701ED91FC910190FF
:102C5000F081E02D48E050E0E6CFFB01C080D1805C
:102C60000AE610E020E030E040E050E060E070E094
:102C70000E94CB1480E491E09A8389831C821B829A
:102C8000B601CE0101960E946F152B813C8189010E
:102C900020E030E040E050E060E070E0C7010E94DA
:102CA000CB14B601C7010E946F153AC0DB01CD906D
:102CB000DC9002E710E020E030E040E050E060E02F
:102CC00070E00E94CB1480E491E09A8389831C8297
:102CD0001B82B601CE0101960E943E172B813C81DA
:102CE000890120E030E040E050E060E070E0C701A2
:102CF0000E94CB14B601C7010E943E1711C09A0171
:102D000040E050E060E070E080E090E003E00E948E
:102D10005E3089019A01AB01BC01C7010E94CB144E
:102D200026960FB6F894DEBF0FBECDBFDF91CF91D0
:102D30001F910F91FF90EF90DF90CF900895CF9269
:102D4000DF92EF92FF920F931F93CF93DF93EC01EB
:102D50007B01FB01C080D180C114D104A1F008E047
:102D600010E020E030E040E050E060E070E00E94E1
:102D7000CB14860120E030E040E050E060E070E0FD
:102D8000CE010E94CB14F701C280D380C114D104BC
:102D9000A9F000E110E020E030E040E050E060E029
:102DA00070E0CE010E94CB14860120E030E040E0CC
:102DB00050E060E070E0CE010E94CB14F701848106
:102DC0009581892BD9F00EE110E020E030E040E061
:102DD00050E060E070E0CE010E94CB14F7018481E6
:102DE0009581892B29F40E94391DF70195838483ED
:102DF000F70164817581CE010E949115F7018681EA
:102E00009781892B99F006E210E020E030E040E065
:102E100050E060E070E0CE010E94CB14C70106963E
:102E20000E949924BC01CE010E949115F701808572
:102E30009185892BD1F006E310E020E030E040E0FE
:102E400050E060E070E0CE010E94CB14C7010E9408
:102E5000A214BC01CE01DF91CF911F910F91FF9081
:102E6000EF90DF90CF900C949115DF91CF911F914F
:102E70000F91FF90EF90DF90CF9008950F931F93E5
:102E8000CF93DF938C01FB01C081D181209741F06A
:102E9000BE01C8010E9491150C80DD81C02DF6CFC6
:102EA000DF91CF911F910F910895CF93DF93EC01A4
:102EB0008A819B810E9769F00E94C327998388833A
:102EC000892B19F48FE090E002C08EE090E09B83A4
:102ED0008A83288139812115310521F08A819B81DE
:102EE0000E9781F080914A0281110EC01092470224
:102EF00010924602109249021092480281E080939B
:102F00004A0202C0C90102C086E492E0DF91CF917B
:102F10000895CF93DF93EC018A819B810D9769F02F
:102F20000E94AF2799838883892B19F48FE090E062
:102F300002C08DE090E09B838A832881398121152E
:102F4000310521F08A819B810D9781F080913E02AD
:102F500081110EC010923B0210923A0210923D0273
:102F600010923C0281E080933E0202C0C90102C07F
:102F70008AE392E0DF91CF910895EF92FF920F9351
:102F80001F93CF93DF938C017B01DC01CD91DC910A
:102F9000209769F088819981009729F0B7010E94F4
:102FA000C532892BA9F10E80DF81C02DF1CF0E949F
:102FB000D727EC01892B79F1F80180819181892B48
:102FC00019F4D183C08307C00280F381E02DD78339
:102FD000C683F987E887F801D383C283F70101909C
:102FE0000020E9F78F010E191F09E0910001F0910F
:102FF00001010190F081E02DB80180E091E0099598
:1030000099838883009721F0A801B7010E94B1320B
:10301000CE01029613C08091320281110DC0109230
:103020002F0210922E028FE090E090933102809355
:10303000300281E0809332028EE292E0DF91CF9104
:103040001F910F91FF90EF900895EF92FF920F93D1
:103050001F93CF93DF93FC01EB018081918182303C
:10306000910529F40481158162EE71E007C0833077
:10307000910579F40481158165EE71E0CE010E941D
:10308000BD17F801DF91CF911F910F91FF90EF9045
:1030900009940497B1F40481158165EE71E0CE01C5
:1030A0000E94BD177C0162EE71E0CE010E94BD1747
:1030B000B701F801DF91CF911F910F91FF90EF9031
:1030C0000994DF91CF911F910F91FF90EF90089598
:1030D0003F924F925F926F927F928F929F92AF92A8
:1030E000BF92CF92DF92EF92FF920F931F93CF93F5
:1030F000DF935C016B01FC0180819181892B09F4D4
:10310000BFC0E280F38069EE71E0C6010E94BD1786
:103110004C01E114F10419F487E090E04EC0F1E0B5
:10312000EF16F10419F488E090E047C0A701F7FE1C
:1031300004C0442755274E195F09D42F152FC52FDA
:10314000CC0FCC0B542E652E7C2E0C2FBC2FFC2FBD
:103150003C2E4C2EE1E0252D362D472D502F6B2F88
:103160007F2F832D942D07E00E947930522E632EFD
:10317000742E052FB62FF72F382E492EA0E00E946F
:10318000953011F0EF5FE7CF6E2F70E0C4010E9421
:1031900069258823A9F00D2F2C2F3C2F4C2F5C2F55
:1031A0006C2F7C2FC4010E9401251E141F041CF0EB
:1031B00082E090E002C081E090E0F401938382839A
:1031C000F501E080F1806CEE71E0C6010E94BD1750
:1031D0004C01E114F10419F487E090E04EC0F1E0F5
:1031E000EF16F10419F488E090E047C0A701F7FE5C
:1031F00004C0442755274E195F09D42F152FC52F1A
:10320000CC0FCC0B542E652E7C2E0C2FBC2FFC2FFC
:103210003C2E4C2EE1E0252D362D472D502F6B2FC7
:103220007F2F832D942D07E00E947930522E632E3C
:10323000742E052FB62FF72F382E492EA0E00E94AE
:10324000953011F0EF5FE7CF6E2F70E0C4010E9460
:1032500069258823A9F00D2F2C2F3C2F4C2F5C2F94
:103260006C2F7C2FC4010E9401251E141F041CF02A
:1032700082E090E002C081E090E0F40193838283D9
:10328000F501C289D3892097C9F06FEE71E0C601BC
:103290000E94BD170E9489178C0168817981C8013D
:1032A0000E94BD170E948917BC01CE0104960E949E
:1032B00068180A80DB81C02D209779F7DF91CF91C4
:1032C0001F910F91FF90EF90DF90CF90BF90AF9044
:1032D0009F908F907F906F905F904F903F90089558
:1032E000FC01538D448D252F30E0842F90E0821B0C
:1032F000930B541710F0CF96089501970895FC0191
:10330000918D828D981761F0828DDF01A80FB11D1C
:103310005D968C91928D9F5F9F73928F90E0089540
:103320008FEF9FEF0895FC01918D828D981731F0FA
:10333000828DE80FF11D858D90E008958FEF9FEF4E
:1033400008958F929F92AF92BF92CF92DF92EF92A9
:10335000FF920F931F93CF93DF937C018B016C013E
:1033600082E0C80ED11C4701E5E08E0E911CC0E042
:10337000D0E0F60141916F0150E060E070E02AE09A
:10338000C8010E9456215C016EE2C8010E94B5216D
:103390008A0D9B1DC80FD91FC814D90451F7F70116
:1033A000458150E060E070E02AE0C8010E945621AB
:1033B0008C0F9D1FDF91CF911F910F91FF90EF9088
:1033C000DF90CF90BF90AF909F908F90089581EA4B
:1033D00092E00E94BC2121E0892B09F420E0822F99
:1033E0000895EF92FF920F931F93CF93DF93EC0119
:1033F00081E0888F9B8D8C8D981305C0E889F989B1
:10340000808185FD24C0F62E0B8D10E00F5F1F4FCD
:103410000F731127E02E8C8DE8120CC00FB607FC3D
:10342000FACFE889F989808185FFF5CFCE010E9426
:10343000A122F1CF8B8DFE01E80FF11DE35AFF4F62
:10344000F0820B8FEA89FB898081806207C0EE8958
:10345000FF896083E889F98980818064808381E0C5
:1034600090E0DF91CF911F910F91FF90EF90089521
:10347000CF93DF93EC01888D8823C9F0EA89FB891B
:10348000808185FD05C0A889B9898C9186FD0FC012
:103490000FB607FCF5CF808185FFF2CFA889B989E7
:1034A0008C9185FFEDCFCE010E94A122E7CFDF9165
:1034B000CF9108951F920F920FB60F9211242F9360
:1034C0003F934F935F936F937F938F939F93AF93AC
:1034D000BF93EF93FF9381EA92E00E94A122FF91B4
:1034E000EF91BF91AF919F918F917F916F915F917C
:1034F0004F913F912F910F900FBE0F901F901895F5
:103500001F920F920FB60F9211242F938F939F93B8
:10351000EF93FF93E091B102F091B2028081E091CC
:10352000B702F091B80282FD12C090818091BA0278
:103530008F5F8F732091BB02821751F0E091BA0226
:10354000F0E0EF55FD4F958F8093BA0201C0808166
:10355000FF91EF919F918F912F910F900FBE0F9040
:103560001F901895CF93DF931F92CDB7DEB7E091F0
:103570004603F09147030190F081E02D41E050E0D7
:10358000BE016F5F7F4F86E493E009959981913882
:1035900010F08111ECCF0F90DF91CF910895EF9251
:1035A000FF920F931F93CF93DF931F92CDB7DEB798
:1035B0007C0100E010E081E00E151F05A1F08823DA
:1035C00091F0E0914603F09147030190F081E02DE6
:1035D00041E050E0BE016F5F7F4F86E493E00995C4
:1035E0000F5F1F4FE9CF0F90DF91CF911F910F9188
:1035F000FF90EF9008952F923F924F925F926F92BB
:103600007F928F929F92AF92BF92CF92DF92EF9272
:10361000FF920F931F93CF93DF93CDB7DEB72E9713
:103620000FB6F894DEBF0FBECDBF7C0119821A829F
:103630001B821C82CE0101960E942E28D82E882340
:1036400009F4D3C189809A80AB80BC80C4018770A3
:10365000992723E0B694A794979487942A95D1F755
:10366000D70113969C928E921297029709F02FC160
:103670001B861C861D861E86CE010B960E942E2858
:10368000D82E882309F4B1C1BBE08B169104A104A4
:10369000B10499F138F4F9E08F169104A104B10452
:1036A00081F0A3C12DE082169104A104B10409F4B4
:1036B00058C03EE083169104A104B10409F4C2C0CD
:1036C00094C18B859C85AD85BE858F3FEFEF9E07AE
:1036D000AE07BE0709F489C1BC016F5F7F4FC70108
:1036E0000E946925882309F480C16B857C85D701F8
:1036F0008D919C910E940E2837C12B843C844D846F
:103700005E8442013101A12CB12C6501E1E09301FD
:10371000A401B501C60107E00E94793039014A01D0
:103720005B016C01A0E00E94953011F0EF5FEFCFDC
:103730008E2F90E0A0E0B0E080959095A095B09598
:1037400082159305A405B50508F44FC1CE2ED12CE2
:10375000B601620D731DC7010E946925811106C162
:1037600044C1F70180819181892B09F03EC10E94FB
:10377000AF275C01D7018D939C93892B09F435C148
:103780006B847C8480904803909049038091480327
:1037900090914903F301E81BF90BCF01880D991DA6
:1037A000892B09F423C10E94D7277C01892B09F4B6
:1037B0001CC1F50180819181892B19F4F182E0828D
:1037C0000AC00280F381E02DF782E682D7011996C4
:1037D000FC93EE931897F501F382E282CE010196F5
:1037E0000E942E28882309F400C189819A81AB8127
:1037F000BC818F3FFFEF9F07AF07BF0709F4F5C0FC
:10380000E0910001F0910101BC016F5F7F4F0190D9
:10381000F081E02D80E091E00995D7018D939C9394
:10382000009709F4E2C069817A810E940E288823FA
:1038300009F4DBC0C70102960E94FB1A882309F431
:10384000D4C0A4CFD7018D919C91892B09F0CDC014
:103850000E94C3275C01F70191838083892B09F4BF
:10386000C4C08B849C84E0904803F090490380910D
:103870004803909149039401281B390BC9018E0D0F
:103880009F1D892B09F4B2C00E94F427009709F408
:10389000ACC0D5012D913C911197232B19F48D9338
:1038A0009C930CC0D5011296ED91FC9113979583D2
:1038B0008483DC011796FC93EE931697F5019383AE
:1038C00082830E94FB1A882309F48FC0D0CF30E195
:1038D0008316910408F089C0F401E35AFF4F0C9459
:1038E00058301B86CE0101966C0110E0E091460332
:1038F000F09147030190F081E02D41E050E0BE01DE
:10390000655F7F4F86E493E00995811151C06DC0DA
:1039100064E070E0C7010E946925882309F465C04E
:10392000E0914603F0914703D7016D917C9101909E
:10393000F081E02D44E050E014C068E070E0C70181
:103940000E946925882309F450C0E0914603F09154
:103950004703D7016D917C910190F081E02D48E003
:1039600050E086E493E00995D82E40C0E0914603EC
:10397000F09147034B855C85D7016D917C916C0D6F
:103980007D1D0190F081E02D86E493E00995D82E0D
:10399000882359F14B855C856D857E858A019B0165
:1039A00040E050E060E070E0C7010E9401251EC0C9
:1039B0008B85F60181936F011F5F87FF03C01A306B
:1039C000A1F094CFA12EB12CB501C7010E946925A9
:1039D000D82E882359F0A501BE016F5F7F4FD70114
:1039E0008D919C910E94B13201C0D12C8D2D2E96CB
:1039F0000FB6F894DEBF0FBECDBFDF91CF911F9100
:103A00000F91FF90EF90DF90CF90BF90AF909F907D
:103A10008F907F906F905F904F903F902F90089580
:103A2000CF93DF93EC0188819981009711F00E9478
:103A30004A31198218821D821C821B821A82DF91F0
:103A4000CF910895CF93DF93009781F0EC010E940E
:103A5000B204E0910001F09101010280F381E02DB8
:103A6000BE0180E091E0DF91CF910994DF91CF9189
:103A70000895E0910001F09101010190F081E02DA5
:103A800064E070E080E091E00995009739F0FC0176
:103A9000118210822FE030E03383228308959F92B9
:103AA000AF92BF92CF92DF92EF92FF920F931F934C
:103AB000CF93DF93CDB7DEB72C970FB6F894DEBF68
:103AC0000FBECDBF8C0119861A861B861C86CE01BF
:103AD00009960E942E28982E882309F4CDC0898546
:103AE0009A85AB85BC8581309105A105B10559F05A
:103AF0000297A105B10509F0BEC081E08093500393
:103B00000E94B21AB8C01D821E821F821886CE0182
:103B100005960E942E28982E882309F4ADC0CD80EA
:103B2000DE80E0904803F0904903580126E0A20EA1
:103B3000B11C80914803909149039601281B390BD1
:103B4000C9018E0D9F1D892B09F496C019821A8216
:103B50001B821C82CE0101960E942E28882309F424
:103B60008AC049815A816B817C81CA0187709927FB
:103B700023E076956795579547952A95D1F782303A
:103B8000910579F03CF40097D1F0019791F688E027
:103B900090E06DC08530910509F467C00697E9F1A2
:103BA000C8CF19821A821B821C82CE0101960E9404
:103BB0002E28882309F45FC089819A8158C041303A
:103BC000510561057105B1F042305105610571057E
:103BD00009F519821A821B821C82CE0101960E946D
:103BE0002E28882309F447C089819A81F80193839C
:103BF00082839FCF19821A821B821C82CE0101967A
:103C00000E942E288823B9F189819A81F801918335
:103C100080838FCF0E94B21A2CC0443051056105B9
:103C20007105C9F04630510561057105C1F0433099
:103C300051056105710509F07CCFF80184819581FA
:103C4000892B29F40E94391DF80195838483F8019A
:103C50008481958107C0C5010E94992403C0C801D1
:103C60000E94A2140E94FB1A04C084E090E00E940B
:103C7000CF1A81115ECF912C892D2C960FB6F89416
:103C8000DEBF0FBECDBFDF91CF911F910F91FF908F
:103C9000EF90DF90CF90BF90AF909F900895EF92FC
:103CA000FF920F931F93CF93DF9300D000D0CDB737
:103CB000DEB77C011C821B828AE391E09A838983B0
:103CC000B701CE0101960E949F1601E010E020E0AE
:103CD00030E040E050E060E070E080E493E00E947B
:103CE000CB142B813C81890120E030E040E050E0A2
:103CF00060E070E080E493E00E94CB14B70180E4C0
:103D000093E00E949F16E0913E03F0913F030680EE
:103D1000F781E02D21E040E050E060E070E08EE3CC
:103D200093E009950F900F900F900F90DF91CF9136
:103D30001F910F91FF90EF900895AF92BF92CF9295
:103D4000DF92EF92FF920F931F93A12CB12C680189
:103D500079018A019B0148EE53E060E070E00E9427
:103D60002A051F910F91FF90EF90DF90CF90BF90A9
:103D7000AF9008954F925F926F927F92AF92BF92F1
:103D8000CF92DF92EF92FF920F931F93CF93DF9327
:103D9000EC010E9491232B013C010E949123DC0144
:103DA000CB0184199509A609B70980319742A1056D
:103DB000B10538F56CEB76E0CE010E94D426A12C3B
:103DC000B12CC12CD12CE12CF12C0FEA16E027EB01
:103DD00036E048EC50E060E070E0CE010E942A0539
:103DE000813041F464E670E080E090E00E94572367
:103DF00081E008C064E670E080E090E00E94572314
:103E0000CCCF80E0DF91CF911F910F91FF90EF9089
:103E1000DF90CF90BF90AF907F906F905F904F906A
:103E20000895EF92FF920F931F93CF93DF937C013E
:103E30000091530310915403E801209771F06881B9
:103E40007981C7010E94C532892B19F4CE010496ED
:103E500038C00A80DB81C02DF0CF8AE190E00E945B
:103E6000B530FC01F182E082138212820496158241
:103E70001482178216821386128614861586168679
:103E80001786108A118A128A138A26E231E0358B4E
:103E9000248B178A168A118E108E012B21F4F09331
:103EA0005403E0935303A0915503B0915603109728
:103EB00021F01396FC93EE931297F0935603E09340
:103EC0005503DF91CF911F910F91FF90EF900895CF
:103ED0000F931F93CF93DF93CDB7DEB72B970FB61A
:103EE000F894DEBF0FBECDBF8C011E821D821886E6
:103EF0001F821A8619861B86FC01868197819A8308
:103F000089837C836B83CE0101960E94A2140E9458
:103F10008917BC01C8010E942518CE0101960E9494
:103F20004F1ECE0101960E94B4142B960FB6F89442
:103F3000DEBF0FBECDBFDF91CF911F910F910895CE
:103F4000FC0180819181009711F00C94062F60E0B4
:103F500070E0CB010895FC0124813581FB0144818F
:103F6000558124173507A0F0FC01808191810097CD
:103F700079F0FB01608171816115710549F0241BA5
:103F8000350B820F931F0E94C53221E0892B09F067
:103F900020E0822F08950F931F93CF93DF93EC01BE
:103FA00088819981009729F02A813B81261737075C
:103FB00088F48B016F5F7F4F0E94E231009761F0C0
:103FC000998388831B830A832C813D81232B11F4E1
:103FD000FC01108281E001C080E0DF91CF911F9150
:103FE0000F910895EF92FF920F931F93CF93DF935A
:103FF000FC01248135816115710511F480E019C03F
:1040000041155105A9F07B01EC018A01020F131F34
:10401000B8010E94CB1F882389F3288139818C81C4
:104020009D81B701820F931F0E94CE321D830C83A6
:1040300081E0DF91CF911F910F91FF90EF90089554
:10404000EF92FF920F931F93CF93DF9300D000D096
:10405000CDB7DEB77C01862F4AE08E010F5F1F4F80
:10406000B80190E00E943D2FF80101900020E9F78F
:104070003197AF01401B510BB801C7010E94F21FDD
:104080000F900F900F900F90DF91CF911F910F9194
:10409000FF90EF900895EF92FF920F931F93CF93AD
:1040A000DF938C017B016115710569F0FB010190C3
:1040B0000020E9F73197EF01C61BD70BBE010E9424
:1040C000CB1F811104C0C8010E94101D08C0F80157
:1040D000D583C483B701808191810E94CE32C8010B
:1040E000DF91CF911F910F91FF90EF900895FC0108
:1040F000808191810C944A31EF92FF920F931F932C
:10410000CF93DF93EC01198218821B821A821D82E1
:104110001C826115710509F18B01CB010E94342FBE
:104120007C01BC01CE010E94CB1F811109C0CE01D0
:10413000DF91CF911F910F91FF90EF900C94101D84
:10414000FD82EC82B80188819981DF91CF911F9126
:104150000F91FF90EF900C942D2FDF91CF911F9135
:104160000F91FF90EF900895EF92FF920F931F939E
:10417000CF93DF93EC01198218821B821A821D8271
:104180001C826115710521F18B01FB01019000205A
:10419000E9F731977F01E61AF70AB7010E94CB1FB2
:1041A000811109C0CE01DF91CF911F910F91FF9036
:1041B000EF900C94101DFD82EC82B80188819981EA
:1041C000DF91CF911F910F91FF90EF900C94CE3221
:1041D000DF91CF911F910F91FF90EF9008950F9372
:1041E0001F93CF93DF93EC010E9491236887798717
:1041F0008A879B87E881F9810284F385E02DCE01CF
:10420000099597FF17C00E949123088519852A8573
:104210003B85DC01CB01801B910BA20BB30B0C8106
:104220001D812E813F8180179107A207B30710F3EC
:104230008FEF9FEFDF91CF911F910F910895CF9254
:10424000DF92EF92FF920F931F93CF93DF9300D0F3
:10425000CDB7DEB78C016B01E42E6AEC71E00E94F1
:10426000B420C6010E94EF200E2C000CFF0897FD21
:1042700011C08E159F0571F089831A8241E050E0CC
:10428000BE016F5F7F4FC8010E94F21FC6010E94EE
:10429000EF20EDCFC8010F900F90DF91CF911F91CC
:1042A0000F91FF90EF90DF90CF9008954F925F9223
:1042B0006F927F92EF92FF920F931F93CF93DF93B2
:1042C000CDB7DEB7A1970FB6F894DEBF0FBECDBF56
:1042D0007C01FA01CB0119A2223008F42AE08E01F8
:1042E0000F5D1F4F422E512C612C712CBF01A30179
:1042F00092010E943630F901CA01015011096A3059
:1043000014F4605D01C0695CD8016C93232B242BED
:10431000252B61F7B801C7010E94D328A1960FB6DB
:10432000F894DEBF0FBECDBFDF91CF911F910F91EB
:10433000FF90EF907F906F905F904F900895CF9394
:10434000DF93AC0160E070E02AE081EA92E00E9435
:104350005621EC0168EC71E081EA92E00E94D328DA
:104360008C0F9D1FDF91CF910895DC01ED91FC91A1
:104370000190F081E02D0994FC01918D228D892F0F
:1043800090E0805C9F4F821B91098F73992708955D
:1043900080E090E0892B29F00E94E71981110C94AC
:1043A000000008953FB7F89480919D0290919E027D
:1043B000A0919F02B091A00226B5A89B05C02F3FF7
:1043C00019F00196A11DB11D3FBFBA2FA92F982F3B
:1043D0008827820F911DA11DB11DBC01CD0142E0B6
:1043E000660F771F881F991F4A95D1F7089520916E
:1043F0005402309155022817390771F490915202F6
:1044000080915302981741F0E0915202F0E0E85A8F
:10441000FD4F808190E008958FEF9FEF08950895FC
:104420001F93CF93DF93DC015C962D913C915D97B8
:104430002115310539F481E090E013969C938E9319
:1044400012973DC05196ED91FC91529750969C91D8
:104450005097892F80951FB75E964C915E9741FBD0
:10446000772770F941FD6095F8944081772311F02A
:10447000492B01C048234083E9012197F1F748E027
:10448000508160FF02C0592B01C058235083E901BD
:104490002197F1F76695415099F7772321F09081A4
:1044A0008923808303C08081982B90831FBF5C96F3
:1044B0008D919C915D970197F1F721E030E0C90162
:1044C000DF91CF911F9108952091540230915502B0
:1044D0002817390771F4809153022091520290E01D
:1044E000805C9F4F821B910960E470E00E94223043
:1044F000089580E090E00895209154023091550293
:1045000028173907B9F490915202809153029817F5
:1045100089F0E0915202F0E0E85AFD4F808120914D
:10452000520230E02F5F3F4F2F7333272093520208
:1045300090E008958FEF9FEF08950E94AC320C94A5
:104540004A31FC01848DDF01A80FB11DA35ABF4F72
:104550002C91848D90E001968F739927848FA68982
:10456000B7892C93A089B1898C9180648C93938DA9
:10457000848D981306C00288F389E02D80818F7D99
:1045800080830895833081F028F4813099F082305F
:10459000A1F008958730A9F08830B9F08430D1F4C3
:1045A000809180008F7D03C0809180008F77809301
:1045B0008000089584B58F7702C084B58F7D84BD57
:1045C00008958091B0008F7703C08091B0008F7DF7
:1045D0008093B00008951F93CF93DF93282F30E08E
:1045E000F901E953F94F8491F901ED5FF84FD49146
:1045F000F901E151F94FC491CC23C9F0162F811173
:104600000E94C222EC2FF0E0EE0FFF1FE552F94F9F
:10461000A591B4918FB7F894111105C09C91ED2F1D
:10462000E095E92302C0EC91ED2BEC938FBFDF9175
:10463000CF911F910895CF93DF9390E0FC01ED5F40
:10464000F84F2491FC01E151F94F8491882361F1E5
:1046500090E0880F991FFC01E354F94FC591D49164
:10466000FC01E552F94FA591B491611109C09FB7C2
:10467000F8948881209582238883EC912E230BC0A7
:10468000623061F49FB7F8943881822F809583233C
:104690008883EC912E2B2C939FBF06C08FB7F89484
:1046A000E8812E2B28838FBFDF91CF9108958F92C1
:1046B0009F92AF92BF92CF92DF92EF92FF926B01E7
:1046C0007C010E94D2214B015C01C114D104E104A0
:1046D000F104F1F00E94D221DC01CB018819990983
:1046E000AA09BB09883E9340A105B10570F321E0FA
:1046F000C21AD108E108F10888EE880E83E0981EFE
:10470000A11CB11CC114D104E104F10419F7DDCFDF
:10471000FF90EF90DF90CF90BF90AF909F908F90E1
:1047200008952FB7F8946091990270919A02809140
:104730009B0290919C022FBF08951F920F920FB67B
:104740000F9211242F933F938F939F93AF93BF9317
:104750008091990290919A02A0919B02B0919C0243
:104760003091980223E0230F2D3720F40196A11DEC
:10477000B11D05C026E8230F0296A11DB11D20938F
:1047800098028093990290939A02A0939B02B0930F
:104790009C0280919D0290919E02A0919F02B091F7
:1047A000A0020196A11DB11D80939D0290939E02CF
:1047B000A0939F02B093A002BF91AF919F918F9160
:1047C0003F912F910F900FBE0F901F9018951F9241
:1047D0000F920FB60F9211242F933F934F935F9335
:1047E0006F937F938F939F93AF93BF93EF93FF93B9
:1047F000E0915402F0915502309709F451C0968D22
:10480000A685B785858591FF04C09C91892329F4ED
:1048100047C09C91892309F043C0A389B4899C9126
:104820008589809589238C93868997890197F1F7EB
:10483000608D718DA685B785558538E020E0CB0168
:104840000197F1F7822F90E095958795282F4C914D
:10485000452309F02068315091F7868D81FD209520
:104860008091530290E001968F7399273091520204
:10487000381749F0A0915302B0E0A85ABD4F2C93CD
:104880008093530203C0868D8160868F828D938DC5
:104890000197F1F7A389B4899C918589892B8C9321
:1048A000FF91EF91BF91AF919F918F917F916F9108
:1048B0005F914F913F912F910F900FBE0F901F90DE
:1048C0001895E0915402F0915502E817F90769F440
:1048D000A389B4899C918589809589238C931092B2
:1048E00055021092540281E0089580E008950F93DC
:1048F0001F93CF93DF9361157105A1F08B01FC012C
:10490000C081D181209771F068817981C8010E94AE
:10491000C532892B19F4CE01049606C00A80DB81CA
:10492000C02DF0CF80E090E0DF91CF911F910F91EB
:104930000895CF93DF93EC0188819981892B21F42D
:104940000E94391D9983888388819981DF91CF9155
:1049500008957F928F929F92AF92BF92CF92DF92F3
:10496000EF92FF920F931F93CF93DF936C01892BEC
:1049700091F1E12CF12C10E0D0E0C0E0812C712C01
:10498000F0E0E0E0C6018E0D911DDC019C90292D28
:104990002F77B7E0EB9E5001112430E040E050E06B
:1049A00060E070E080E090E00A2D0E945E30F22A24
:1049B000132BD42BC52B862A772AF82BE92BE394CB
:1049C00097FCE0CF2F2D312F4D2F5C2F682D772DA9
:1049D0008F2F9E2F08C020E030E040E050E060E0E4
:1049E00070E080E090E0DF91CF911F910F91FF90F8
:1049F000EF90DF90CF90BF90AF909F908F907F907F
:104A000008952F923F924F925F926F927F928F9272
:104A10009F92AF92BF92CF92DF92EF92FF920F934D
:104A20001F93CF93DF936C01222EC32FD42FF52E2B
:104A3000E62EB72EE0E0F02FFF779801422D5C2F95
:104A40006D2F7F2D8E2D9B2D07E00E947930322E09
:104A5000432E542E652E762E872E982EA92E022FA9
:104A6000132F242EE301F72EE82EB92E9801452DA1
:104A70005C2F6D2F782D892D9A2DA0E00E94953006
:104A800009F0F068D6018D919C918E0F911DDC018B
:104A9000FC93EF5F232D342D452D562D672D782D5A
:104AA000892D9A2DA0E00E94953029F6DF91CF91B3
:104AB0001F910F91FF90EF90DF90CF90BF90AF903C
:104AC0009F908F907F906F905F904F903F902F902E
:104AD0000895CF93DF93FC0120813181232B89F44A
:104AE000EC01E0910001F09101010190F081E02DD5
:104AF00080E091E009959C019983888381E0232BD4
:104B000009F480E0DF91CF9108954F925F926F9208
:104B10007F928F929F92AF92BF92CF92DF92EF924D
:104B2000FF920F931F93CF93DF93EC010E94912389
:104B3000611571058105910519F487E090E036C093
:104B4000613071058105910519F488E090E02EC06F
:104B50002B013C017B018301B0E0F0E0C12CD12CA2
:104B6000E1E09701A8016B2F7F2FC60107E00E94AB
:104B7000793079018A01B62FF72F6C01A0E00E94ED
:104B8000953011F0EF5FEDCF6E2F70E0CE010E94F7
:104B90006925882369F08201930140E050E060E0DC
:104BA00070E0CE010E94012581E090E09B838A8322
:104BB000DF91CF911F910F91FF90EF90DF90CF90F9
:104BC000BF90AF909F908F907F906F905F904F902D
:104BD0000895CF92DF92EF92FF920F931F93CF939E
:104BE000DF937C016B010E94F427EC01892B99F182
:104BF000D7018D919C911197892B19F4CD93DC935A
:104C000009C0D7011296ED91FC911397D583C48307
:104C1000FF83EE83F701D383C283F6010190002066
:104C2000E9F73197EC19FD0919F48AE090E011C019
:104C30008F010F5F1F4FB801CE010E9469258823A5
:104C400051F0A801B601888199810E94B13289E0B2
:104C500090E09B838A83C701DF91CF911F910F91D1
:104C6000FF90EF90DF90CF9008950895AF92BF929C
:104C7000CF92DF92FF920F931F93CF93DF931F92F8
:104C8000CDB7DEB75C016B01F22E6BEC71E0DC019D
:104C90008D919C9149830E94E828B601F50180819D
:104CA00091810E94AF28498150E060E070E02AE0E5
:104CB000D5018D919C910E9456216F2DF501808127
:104CC00091810E94B521A80160E070E02AE0D50141
:104CD0008D919C910E94562168EC71E0F5018081D4
:104CE00091810E94E828D5018D919C91DC01ED9184
:104CF000FC910680F781E02D099560E070E0CB0122
:104D00000F90DF91CF911F910F91FF90DF90CF9087
:104D1000BF90AF900C945723CF92DF92EF92FF9207
:104D20000F931F93CF93DF931F92CDB7DEB76C0124
:104D30007B018A016BEC71E0DC018D919C912983F0
:104D40000E94E828B701F601808191810E94AF2876
:104D5000B801D6018D919C910E94E8282981622F8B
:104D6000F601808191810E94B52168EC71E0D60145
:104D70008D919C910E94E828F60180819181DC014F
:104D8000ED91FC910680F781E02D099560E070E0DF
:104D9000CB010F90DF91CF911F910F91FF90EF907A
:104DA000DF90CF900C9457230F931F93CF93DF93F3
:104DB000EC018B016BEC71E0888199810E94E828FD
:104DC000B801888199810E94AF2868EC71E08881E0
:104DD00099810E94E82888819981DC01ED91FC91FC
:104DE0000680F781E02D099560E070E0CB01DF914E
:104DF000CF911F910F910C945723EF92FF920F9335
:104E00001F93CF93DF931F92CDB7DEB77C018B0149
:104E10006BEC71E0DC018D919C9149830E94E82844
:104E2000B801F701808191810E94AF28498150E04B
:104E300060E070E02AE0D7018D919C910E9456219C
:104E400068EC71E0F701808191810E94E828D70128
:104E50008D919C91DC01ED91FC910680F781E02D14
:104E6000099560E070E0CB010F90DF91CF911F9129
:104E70000F91FF90EF900C94572341E050E06CE2CB
:104E800072E00C94F21FCF92DF92EF92FF920F9399
:104E90001F93CF93DF936B01770FEE08FF08F7FEA8
:104EA0001BC0EC016DE20E94B5218C0144275527FF
:104EB000BA014C195D096E097F092AE0CE010E94F2
:104EC0005621800F911FDF91CF911F910F91FF907D
:104ED000EF90DF90CF9008952AE0B701A601DF910F
:104EE000CF911F910F91FF90EF90DF90CF900C9496
:104EF0005621CF93DF93BC0181EA92E00E94AF2854
:104F0000EC0168EC71E081EA92E00E94D3288C0FFA
:104F10009D1FDF91CF910895CF93DF93EC0188819E
:104F20009981DC01ED91FC910084F185E02D0995DA
:104F3000892B31F460E070E0CB010E945723EFCF62
:104F400088819981DC01ED91FC910284F385E02D4B
:104F500009958C9721F781E0DF91CF910895E09139
:104F60000001F09101010190F081E02D64E070E01A
:104F700080E091E00995009729F0FC0111821082F0
:104F8000138212820895E0910001F09101010190D5
:104F9000F081E02D64E070E080E091E009950097F9
:104FA00029F0FC0111821082138212820895E0918F
:104FB0000001F09101010190F081E02D6AE070E0C4
:104FC00080E091E00995FC01892B61F0118210824B
:104FD000138212828FE090E0958384831782168279
:104FE00011861086CF010895E0910001F091010132
:104FF0000190F081E02D68E070E080E091E009959B
:10500000009759F0FC01118210822FE030E03383C9
:105010002283158214821782168208950F931F939C
:10502000CF93DF93009781F0EB018C01E091460371
:10503000F09147030190F081E02DAB01BC0186E4C3
:1050400093E00995811102C080E003C0C00FD11F19
:105050001882DF91CF911F910F9108958F929F92A7
:10506000AF92BF92EF92FF920F931F93CF93DF9374
:105070001F92CDB7DEB77C01FC0110821182128233
:10508000138200E010E0E0914603F09147030190A5
:10509000F081E02D41E050E0BE016F5F7F4F86E47C
:1050A00093E00995882321F10332110501F19981DB
:1050B000492F4F7750E060E070E0002E04C0440FAD
:1050C000551F661F771F0A94D2F7F70180809180E1
:1050D000A280B380482959296A297B2940835183BA
:1050E00062837383095F1F4F97FDCDCF01C080E0BE
:1050F0000F90DF91CF911F910F91FF90EF90BF9094
:10510000AF909F908F900895CF92DF92EF92FF9291
:105110000F931F93CF93DF936C017A018B01C0E053
:10512000D0E0CE15DF0589F0D8016D918D01D60153
:10513000ED91FC910190F081E02DC6010995892B3C
:1051400011F47E0102C02196ECCFC701DF91CF910F
:105150001F910F91FF90EF90DF90CF900895EF9205
:10516000FF920F931F93CF93DF938C017B01C0E0DD
:10517000D0E0F701EC0FFD1F6491662361F0D801C8
:10518000ED91FC910190F081E02DC8010995892BEA
:1051900011F02196EECFCE01DF91CF911F910F91AB
:1051A000FF90EF9008956115710579F0FB01019072
:1051B0000020E9F73197AF01461B570BDC01ED9159
:1051C000FC910280F381E02D099480E090E0089545
:1051D0000C94D328CF93DF93CDB7DEB7A0970FB64B
:1051E000F894DEBF0FBECDBF789484B5826084BDD5
:1051F00084B5816084BD85B5826085BD85B58160DB
:1052000085BD80916E00816080936E001092810058
:105210008091810082608093810080918100816013
:1052200080938100809180008160809380008091D4
:10523000B10084608093B1008091B0008160809360
:10524000B00080917A00846080937A0080917A0027
:10525000826080937A0080917A00816080937A00E6
:1052600080917A00806880937A001092C100E0916A
:10527000B102F091B20282E08083E091AD02F09140
:10528000AE021082E091AF02F091B0028FEC808309
:105290001092B902E091B502F091B60286E08083E7
:1052A000E091B302F091B402808180618083E0914B
:1052B000B302F091B402808188608083E091B302F0
:1052C000F091B402808180688083E091B302F09114
:1052D000B40280818F7D80831092EF031092EE03E1
:1052E0001092ED031092EC031092EB031092EA037C
:1052F0008DE991E09093F1038093F0039091E003A6
:10530000963108F057C02DEB30E03093EB0320933B
:10531000EA032BE931E03093ED032093EC032CE218
:1053200031E03093EF032093EE0320916800983032
:1053300050F031E09E3008F430E081E001C0880F89
:105340003A95EAF701C084E0822B80936800983098
:1053500038F09E3040F0963148F020E030E008C050
:105360002DE630E005C02BE630E002C02CE630E050
:105370003093E8032093E703983030F481E001C0D4
:10538000880F9A95EAF70EC0292F30E09E3018F466
:105390002850310902C02E50310981E001C0880F28
:1053A0002A95EAF78093E9038091F0039091F10345
:1053B0000197F1F78091EE039091EF03892B21F192
:1053C000809154029091550223E0843D9207E1F0D0
:1053D000009711F00E9461248091F2038E7F8093E8
:1053E000F203109253021092520284ED93E09093D4
:1053F000550280935402E091E703F091E803908115
:105400008091E903892B808381EF91E0909366037B
:10541000809365038AEC91E090936803809367031F
:1054200090936A038093690361E08DE00E941B23DF
:1054300086E092E00E94111F22E030E0DC0111962C
:105440003C932E9328EB3CE015963C932E931497B7
:105450008AE092E00E94111F23E030E0FC013183DA
:10546000208325E835E23583248387E0282E312CFC
:1054700044244394512C22E0622E712C80915703D6
:1054800090915803DC01ED91FC910688F789E02D9D
:1054900009958111C7C0E0913E03F0913F03048458
:1054A000F585E02D8EE393E0099581111BC060E046
:1054B00070E08EE393E00E942511E0913E03F091AD
:1054C0003F030284F385E02D8EE393E0099581117B
:1054D00003C062E070E091C061E070E08EE393E0B1
:1054E0000E9425118091570390915803DC01ED91A2
:1054F000FC910488F589E02D099563E070E08EE366
:1055000093E00E9425118EE393E00E94690C8823AA
:1055100009F485C064E070E08EE393E00E942511F9
:1055200069E070E08EE393E00E94251100915D0335
:1055300010915E03E0905B03F0905C03C090590310
:10554000D0905A0381E0809350031D861C86198AEF
:10555000188A1B8A1A8A1D8A1C8A1E8A85E090E096
:105560009F878E87CE0142960E9499240E945517EC
:10557000B6010E94E925B7010E94E925B8010E9401
:10558000E925CE010C960E944F1E182F8823E1F0CA
:105590001A8219821C821B821E821D8218861F821B
:1055A0001A8619861B86CE0101960E944F1D182F60
:1055B000882331F011E08B819C81019709F010E084
:1055C000CE0101960E94B414CE010C960E94B41430
:1055D00011111EC06BE070E08EE393E00E94251174
:1055E0008091570390915803DC01ED91FC91048860
:1055F000F589E02D099566E070E08EE393E00E9466
:10560000251168E873E180E090E00E9457235EC0B6
:105610006AE070E08EE393E00E94251103C065E02C
:1056200070E0EBCF8091570390915803DC01ED912E
:10563000FC910084F185E02D09958C01892BD9F02E
:105640006DED71E081EA92E00E94E82867EA76E079
:1056500081EA92E00E94AF286FED71E081EA92E06A
:105660000E94E82865E976E081EA92E00E94AF288E
:10567000C8010E949F210E9491234B015C01012BD4
:1056800041F580914C0390914D03A0914E03B09150
:105690004F0375016401C81AD90AEA0AFB0A21E618
:1056A000C2162AEED206E104F10408F077C0809118
:1056B0005602909157021816190644F400915303AC
:1056C000109154030115110509F0A8C00E94C821CA
:1056D000D5CE1D861C861F861E86198A188A1B8AAF
:1056E0001A8A1D8A1C8A1E8ACE010C960E944F1DA2
:1056F000882309F44EC08C859D859A8389835C82BA
:105700004B821E821D8218861F821A8619861B866E
:105710008A899B89892B79F1CE0142960E9499242E
:105720000E945517FC01E080F18000E010E019C0F4
:10573000F701C080D18084819581892B09F498C0BC
:105740000115110509F090C0B60183E593E00E94B0
:1057500077248C01892B79F0D7011496ED90FC9079
:105760001597E114F10449F0D70112968D919C919F
:1057700013970997E9F27C826B8289819A81892B40
:1057800021F0CE0101960E944F1ECE0101960E948B
:10579000B414CE010C960E94B41473CF80915003C0
:1057A000882389F180924C0390924D03A0924E037E
:1057B000B0924F031092500302E010E020E030E07E
:1057C00040E050E060E070E080E493E00E94CB14A1
:1057D00000E020E030E040E050E060E070E080E495
:1057E00093E00E94CB14E0913E03F0913F030680CA
:1057F000F781E02D21E040E050E060E070E08EE3D2
:1058000093E0099554CFE0913E03F0913F0300846B
:10581000F185E02D8EE393E0099549CFF801848569
:105820009585A685B7850097A105B105C9F0408982
:1058300051896289738975016401C41AD50AE60A1F
:10584000F70AC816D906EA06FB0650F0808A918A44
:10585000A28AB38A67E070E0C80104960E94681FBC
:10586000F801028113812ECFB601C80142966FCF95
:10587000B60181E192E00E94C532892B81F50115C4
:10588000110511F5C0905303D0905403C114D104F5
:1058900009F462CFD6016D917C91CE0101966F8F94
:1058A00078A30E94A2140E9489176F8D78A10E948C
:1058B000BD170E948917BC01C60104960E94681892
:1058C000F601C280D380E2CFCE0101960E94A214DD
:1058D0000E948917BC01C8010E9425183DCFB6015E
:1058E0000115110519F483E593E002C0C801429641
:1058F0000E9477248C01892B19F47C826B822CCF37
:105900008E859F858330910509F445C084309105CB
:1059100009F4C1C0892B09F0D9C0D8018D919C919F
:105920008230910531F154F4019709F0CFC0D801CC
:105930001496ED91FC9115970995C8C08330910597
:10594000F1F0049709F0C2C0D8011496CD90DC9014
:105950001597CE0101960E94A214BC01CE010C96AF
:105960006F8F78A30E94A2146F8D78A1F60109951C
:10597000ADC0F801C480D580CE010C9607C0D80117
:105980001496CD90DC901597CE0101960E94A2143A
:10599000F60109959BC0CE010C960E94A214DC0171
:1059A0001296ED91FC9113973197EF30F105D0F5F8
:1059B000E25BFF4F0C94583061E070E080E090E0D3
:1059C00034C0ED91FC9160817181828193810E944C
:1059D000F32F2BC08D919C910E94A924A32FF42F0B
:1059E000E52F622F7A2F8F2F9E2F1FC08D919C91B4
:1059F0000E94A9242F8B388F498F5A8F6B8F7C8FF1
:105A00008D8F9E8F6F89788D898D9A8D90958095D9
:105A1000709561957F4F8F4F9F4F07C013963C92B3
:105A20002E92129760E070E0CB012C853D85D80165
:105A300017963C932E93169718962D913D914D9164
:105A40005C911B97232B242B252B61F46115710589
:105A500081059105B1F020915602309157022F5FD8
:105A60003F4F0BC0611571058105910551F42091DF
:105A7000560230915702215031093093570220933A
:105A80005602F8016087718782879387148615868E
:105A9000168617861BC0F8011782168280859185AD
:105AA000A285B385892B8A2B8B2B49F080915602D6
:105AB0009091570201979093570280935602D80114
:105AC00018961D921D921D921C921B97F8018681BB
:105AD0009781892B09F440CE80819181029709F04A
