:100000000C9463000C948B000C948B000C94DE0316
:100010000C94DE030C94DE030C948B000C948B0088
:100020000C948B000C948B000C948B000C948B0024
:100030000C948B000C948B000C948B000C948B0014
:100040000C9494030C948B000C9462030C943C036A
:100050000C948B000C948B000C948B000C948B00F4
:100060000C948B000C948B0000000008000201002F
:100070000003040700000000000000000000000072
:10008000250028002B0000000000240027002A0083
:1000900000000000230026002900040404040404D6
:1000A0000404020202020202030303030303010227
:1000B00004081020408001020408102001020408F6
:1000C00010205804A50711241FBECFEFD8E0DEBFD3
:1000D000CDBF13E0A0E0B1E0EEEDFFE002C005907F
:1000E0000D92AA31B107D9F724E0AAE1B3E001C02B
:1000F0001D92A332B207E1F710E0C2E6D0E004C0DF
:100100002197FE010E94D707C136D107C9F70E9487
:100110003A050C94E2070C940000CF92DF92EF9224
:10012000FF920F931F93CF93DF936C017A018B01A2
:10013000C0E0D0E0CE15DF0589F0D8016D918D01CA
:10014000D601ED91FC910190F081E02DC601099559
:10015000892B11F47E0102C02196ECCFC701DF91FB
:10016000CF911F910F91FF90EF90DF90CF90089566
:10017000FC01538D448D252F30E0842F90E0821BAD
:10018000930B541710F0CF96089501970895FC0132
:10019000918D828D981761F0828DDF01A80FB11DBE
:1001A0005D968C91928D9F5F9F73928F90E00895E2
:1001B0008FEF9FEF0895FC01918D828D981731F09C
:1001C000828DE80FF11D858D90E008958FEF9FEFF0
:1001D0000895FC01918D228D892F90E0805C9F4FC6
:1001E000821B91098F739927089587E693E00E94F7
:1001F000E90021E0892B09F420E0822F0895FC0119
:10020000848DDF01A80FB11DA35ABF4F2C91848D9F
:1002100090E001968F739927848FA689B7892C93D4
:10022000A089B1898C9180648C93938D848D98136F
:1002300006C00288F389E02D80818F7D8083089538
:10024000EF92FF920F931F93CF93DF93EC0181E026
:10025000888F9B8D8C8D981305C0E889F9898081E2
:1002600085FD24C0F62E0B8D10E00F5F1F4F0F731E
:100270001127E02E8C8DE8120CC00FB607FCFACFC8
:10028000E889F989808185FFF5CFCE010E94FF00C2
:10029000F1CF8B8DFE01E80FF11DE35AFF4FF08285
:1002A0000B8FEA89FB898081806207C0EE89FF8914
:1002B0006083E889F98980818064808381E090E0AF
:1002C000DF91CF911F910F91FF90EF900895CF9301
:1002D000DF93EC01888D8823C9F0EA89FB8980814E
:1002E00085FD05C0A889B9898C9186FD0FC00FB620
:1002F00007FCF5CF808185FFF2CFA889B9898C9161
:1003000085FFEDCFCE010E94FF00E7CFDF91CF91B7
:10031000089580E090E0892B29F00E94F50081117A
:100320000C940000089590E0FC01E859FF4F3491CF
:10033000FC01E255FF4F2491FC01E656FF4FE4918A
:10034000EE2309F43BC0332339F1333091F038F414
:100350003130A9F0323001F584B58F7D12C03730CD
:1003600091F03830A1F03430B9F4809180008F7D65
:1003700003C0809180008F77809380000DC084B58A
:100380008F7784BD09C08091B0008F7703C08091C2
:10039000B0008F7D8093B000F0E0EE0FFF1FE458B7
:1003A000FF4FA591B4918FB7F894EC91611103C000
:1003B00020952E2301C02E2B2C938FBF08953FB77D
:1003C000F89480915F0390916003A0916103B091D4
:1003D000620326B5A89B05C02F3F19F00196A11D09
:1003E000B11D3FBFBA2FA92F982F8827820F911DCB
:1003F000A11DB11DBC01CD0142E0660F771F881F12
:10040000991F4A95D1F708958F929F92AF92BF920C
:10041000CF92DF92EF92FF926B017C010E94DF018D
:100420004B015C01C114D104E104F104F1F00E941C
:10043000DF01DC01CB0188199909AA09BB09883EB3
:100440009340A105B10570F321E0C21AD108E1087B
:10045000F10888EE880E83E0981EA11CB11CC1141F
:10046000D104E104F10419F7DDCFFF90EF90DF90A4
:10047000CF90BF90AF909F908F900895209165038B
:10048000309166032817390771F4909163038091C6
:100490006403981741F0E0916303F0E0E65EFC4FDF
:1004A000808190E008958FEF9FEF089508951F9346
:1004B000CF93DF93DC015C962D913C915D972115E4
:1004C000310539F481E090E013969C938E93129756
:1004D0003DC05196ED91FC91529750969C9150974A
:1004E000892F80951FB75E964C915E9741FB7727C9
:1004F00070F941FD6095F8944081772311F0492B04
:1005000001C048234083E9012197F1F748E0508179
:1005100060FF02C0592B01C058235083E901219785
:10052000F1F76695415099F7772321F0908189235F
:10053000808303C08081982B90831FBF5C968D9130
:100540009C915D970197F1F721E030E0C901DF91BF
:10055000CF911F910895209165033091660328176C
:10056000390771F4809164032091630390E0805C0B
:100570009F4F821B910960E470E00E94AF070895CD
:1005800080E090E00895209165033091660328177C
:100590003907B9F49091630380916403981789F047
:1005A000E0916303F0E0E65EFC4F808120916303FD
:1005B00030E02F5F3F4F2F7333272093630390E08A
:1005C00008958FEF9FEF0895E0916503F091660322
:1005D000E817F90769F4A389B4899C918589809506
:1005E00089238C93109266031092650381E008952D
:1005F00080E00895089580E090E0089584E094E01C
:100600000E94AB02892B51F084E094E00E94C30267
:10061000682F87E693E00E942001F0CF08956115CE
:10062000710579F0FB0101900020E9F73197AF01E6
:10063000461B570BDC01ED91FC910280F381E02D0C
:10064000099480E090E008950F931F93CF93DF9378
:10065000EC010E940F038C0164E271E0CE010E9464
:100660000F03800F911FDF91CF911F910F9108957C
:100670000C940F030E94DD071F920F920FB60F928A
:1006800011242F933F934F935F936F937F938F9397
:100690009F93AF93BF93EF93FF9387E693E00E94FE
:1006A000FF00FF91EF91BF91AF919F918F917F914B
:1006B0006F915F914F913F912F910F900FBE0F90CF
:1006C0001F9018951F920F920FB60F9211242F931F
:1006D0008F939F93EF93FF93E0917703F0917803CB
:1006E0008081E0917D03F0917E0382FD12C09081B4
:1006F000809180038F5F8F7320918103821751F067
:10070000E0918003F0E0E959FC4F958F80938003DE
:1007100001C08081FF91EF919F918F912F910F9058
:100720000FBE0F901F9018951F920F920FB60F9249
:1007300011242F933F938F939F93AF93BF938091F7
:100740005B0390915C03A0915D03B0915E033091D7
:100750005A0323E0230F2D3720F40196A11DB11D6C
:1007600005C026E8230F0296A11DB11D20935A0350
:1007700080935B0390935C03A0935D03B0935E034F
:1007800080915F0390916003A0916103B091620337
:100790000196A11DB11D80935F0390936003A09308
:1007A0006103B0936203BF91AF919F918F913F918D
:1007B0002F910F900FBE0F901F9018951F920F92C0
:1007C0000FB60F9211242F933F934F935F936F9324
:1007D0007F938F939F93AF93BF93EF93FF93E0919A
:1007E0006503F0916603309709F451C0968DA68594
:1007F000B785858591FF04C09C91892329F447C062
:100800009C91892309F043C0A389B4899C9185896F
:10081000809589238C93868997890197F1F7608D5C
:10082000718DA685B785558538E020E0CB0101970D
:10083000F1F7822F90E095958795282F4C914523CD
:1008400009F02068315091F7868D81FD20958091C7
:10085000640390E001968F739927309163033817F2
:1008600049F0A0916403B0E0A65EBC4F2C93809346
:10087000640303C0868D8160868F828D938D01977E
:10088000F1F7A389B4899C918589892B8C93FF9179
:10089000EF91BF91AF919F918F917F916F915F91F8
:1008A0004F913F912F910F900FBE0F901F90189571
:1008B000CF93DF9310926A031092690388EE93E05E
:1008C000A0E0B0E080936B0390936C03A0936D0362
:1008D000B0936E0324E031E0309368032093670304
:1008E00025EC30E0309374032093730324EC30E064
:1008F000309376032093750320EC30E03093780337
:100900002093770321EC30E030937A03209379032E
:1009100022EC30E030937C0320937B0326EC30E024
:1009200030937E0320937D03109280031092810305
:10093000109282031092830310920704109206040F
:100940008093080490930904A0930A04B0930B04C5
:1009500086E191E0909305048093040410921B04B7
:1009600010921A0410921D0410921C0410921F047D
:1009700010921E041092210410922004609122040F
:100980006E7F6D7F609322046695617081E06827B9
:1009900088E00E949301E6EBF0E02491E2EAF0E0C7
:1009A0008491882399F090E0880F991FFC01EA5701
:1009B000FF4FA591B491FC01E458FF4F85919491AC
:1009C0008FB7F894EC91E22BEC938FBFE6EBF0E05D
:1009D000E491E0931404E2EAF0E0E491F0E0EE0F39
:1009E000FF1FE458FF4F85919491909316048093D4
:1009F0001504E5EBF0E02491E1EAF0E0849188232E
:100A0000C1F090E0880F991FFC01EA57FF4FC59194
:100A1000D491FC01E458FF4FA591B4919FB7F8948D
:100A20008881E22FE0958E2388838C91E823EC93D4
:100A30009FBF8091220481FD04C061E087E00E9495
:100A4000930187E080931004E5EBF0E0E491E093FC
:100A50001104E1EAF0E0E491F0E0EE0FFF1FE0574F
:100A6000FF4F859194919093130480931204DF912A
:100A7000CF910895789484B5826084BD84B58160F7
:100A800084BD85B5826085BD85B5816085BD809159
:100A90006E00816080936E001092810080918100D1
:100AA00082608093810080918100816080938100C9
:100AB000809180008160809380008091B10084608B
:100AC0008093B1008091B00081608093B0008091EC
:100AD0007A00846080937A0080917A0082608093AB
:100AE0007A0080917A00816080937A0080917A0008
:100AF000806880937A001092C10010921F041092B7
:100B00001E0410921D0410921C0410921B041092DB
:100B10001A048DE991E09093210480932004909130
:100B20001004963108F057C02DEB30E030931B04D1
:100B300020931A042BE931E030931D0420931C0408
:100B40002CE231E030931F0420931E0420916800B2
:100B5000983050F031E09E3008F430E081E001C080
:100B6000880F3A95EAF701C084E0822B80936800F1
:100B7000983038F09E3040F0963148F020E030E078
:100B800008C02DE630E005C02BE630E002C02CE6C0
:100B900030E03093180420931704983030F481E04B
:100BA00001C0880F9A95EAF70EC0292F30E09E30D9
:100BB00018F42850310902C02E50310981E001C0DB
:100BC000880F2A95EAF78093190480912004909168
:100BD00021040197F1F780911E0490911F04892B45
:100BE00021F1809165039091660324E0843092079F
:100BF000E1F0009711F00E94E402809122048E7FC0
:100C000080932204109264031092630384E094E0C2
:100C10009093660380936503E0911704F0911804A4
:100C2000908180911904892B8083E0917703F09162
:100C3000780382E08083E0917303F0917403108263
:100C4000E0917503F09176038FEC808310927F031F
:100C5000E0917B03F0917C0386E08083E09179034F
:100C6000F0917A03808180618083E0917903F09133
:100C70007A03808188608083E0917903F0917A0320
:100C8000808180688083E0917903F0917A0380818C
:100C90008F7D808367E271E087E693E00E94240302
:100CA00065E371E087E693E00E9438036CE371E04E
:100CB00084E094E00E94240368E873E180E090E01F
:100CC0000E9404020E94FE0268E873E180E090E066
:100CD0000E9404026FE371E087E693E00E9438030C
:100CE00060E571E084E094E00E94240368E873E129
:100CF00080E090E00E9404020E94FE0268E873E136
:100D000080E090E00E9404026DE571E087E693E0E8
:100D10000E9438036DE671E084E094E00E942403B1
:100D200068E873E180E090E00E9404020E94FE0205
:100D300068E873E180E090E00E94040269E771E0F6
:100D400087E693E00E94380368E871E084E094E06D
:100D50000E94240368E873E180E090E00E940402AE
:100D60000E94FE0268E873E180E090E00E940402C5
:100D700063E971E087E693E00E94380360EA71E07E
:100D800084E094E00E94240368E873E180E090E04E
:100D90000E9404020E94FE0268E873E180E090E095
:100DA0000E94040269EA71E087E693E00E9438033A
:100DB00067EB71E084E094E00E94240368E873E14B
:100DC00080E090E00E9404020E94FE0268E873E165
:100DD00080E090E00E94040261EC71E087E693E01D
:100DE0000E9438036AEE71E084E094E00E942403DC
:100DF00068E873E180E090E00E9404020E94FE0235
:100E000068E873E180E090E00E9404026FE072E025
:100E100087E693E00E9438036CE172E084E094E09E
:100E20000E94240368E873E180E090E00E940402DD
:100E30000E94FE0268E873E180E090E00E940402F4
:100E400065E272E087E693E00E94380362E372E0B5
:100E500084E094E00E94240368E873E180E090E07D
:100E60000E9404020E94FE0268E873E180E090E0C4
:100E70000E9404026BE372E087E693E00E9438036D
:100E80006BE672E084E094E00E94240368E873E17A
:100E900080E090E00E9404020E94FE0268E873E194
:100EA00080E090E00E94040267E972E087E693E048
:100EB0000E94380366EA72E084E094E00E94240312
:100EC00060ED77E080E090E00E9404020E94FE0264
:100ED00060ED77E080E090E00E94040261EB72E058
:100EE00087E693E00E94380369ED72E084E094E0C5
:100EF0000E94380368E873E180E090E00E940402F9
:100F00000E94FE0268E873E180E090E00E94040223
:100F100060E073E087E693E00E9438036FE073E0DF
:100F200084E094E00E94240368E873E180E090E0AC
:100F30000E9404020E94FE0268E873E180E090E0F3
:100F40000E9404020E948901A5CE86E191E090935F
:100F500005048093040484E094E00C94E40297FB7D
:100F6000072E16F4009407D077FD09D00E94C3071E
:100F700007FC05D03EF4909581959F4F089570959C
:100F800061957F4F0895AA1BBB1B51E107C0AA1FA3
:100F9000BB1FA617B70710F0A61BB70B881F991F1A
:100FA0005A95A9F780959095BC01CD010895EE0F53
:100FB000FF1F0590F491E02D099481E090E0F894F2
:100FC0000C94E20710E0C2E6D0E004C0FE010E94EB
:0E0FD000D7072196C336D107C9F7F894FFCF93
:100FDE000000000020018D00B8006701E900C70085
:100FEE00DB000000000057028D00FB025602AB0230
:100FFE00C3023E020D0A00544350205265636569D8
:10100E007665203A0041545C725C6E00415400419A
:10101E00542B4349504D4F44453D305C725C6E003D
:10102E0041542B4349504D4F44453D300041542BC4
:10103E004349504D55583D305C725C6E0041542B07
:10104E004349504D55583D300041542B4347415470
:10105E00543D315C725C6E0041542B4347415454F5
:10106E003D310041542B435245473F5C725C6E004C
:10107E0041542B435245473F0041542B4347415463
:10108E00543F5C725C6E0041542B43474154543FB5
:10109E000041542B435354543D22696E7465726E55
:1010AE0065742E70726F78696D75732E6265222C61
:1010BE0022222C22225C725C6E0041542B4353542C
:1010CE00543D22696E7465726E65742E70726F78FF
:1010DE00696D75732E6265222C22222C222200410C
:1010EE00542B43494943525C725C6E0041542B436E
:1010FE00494943520041542B43494653525C725C5A
:10110E006E0041542B43494653520041542B4349E0
:10111E005053544152543D22544350222C2261705C
:10112E00692E7468696E67737065616B2E636F6D7F
:10113E00222C223830225C725C6E0041542B4349C3
:10114E005053544152543D22544350222C2261702C
:10115E00692E7468696E67737065616B2E636F6D4F
:10116E00222C223830220041542B43495053454EF5
:10117E00445C725C6E0041542B43495053454E44BF
:10118E0000474554202F6368616E6E656C732F3176
:10119E0031393932322F66656564732F6C61737421
:1011AE002E7478745C725C6E00474554202F636811
:1011BE00616E6E656C732F3131393932322F66653F
:1011CE006564732F6C6173742E7478740D0A1A0033
:1011DE0041542B434950534855545C725C6E004148
:0A11EE00542B434950534855540058
:107E0000112484B714BE81FFF0D085E080938100F7
:107E100082E08093C00088E18093C10086E0809377
:107E2000C20080E18093C4008EE0C9D0259A86E02C
:107E300020E33CEF91E0309385002093840096BBD3
:107E4000B09BFECF1D9AA8958150A9F7CC24DD24C4
:107E500088248394B5E0AB2EA1E19A2EF3E0BF2EE7
:107E6000A2D0813461F49FD0082FAFD0023811F036
:107E7000013811F484E001C083E08DD089C08234E0
:107E800011F484E103C0853419F485E0A6D080C0E4
:107E9000853579F488D0E82EFF2485D0082F10E0AE
:107EA000102F00270E291F29000F111F8ED06801E7
:107EB0006FC0863521F484E090D080E0DECF843638
:107EC00009F040C070D06FD0082F6DD080E0C81688
:107ED00080E7D80618F4F601B7BEE895C0E0D1E017
:107EE00062D089930C17E1F7F0E0CF16F0E7DF06D8
:107EF00018F0F601B7BEE89568D007B600FCFDCFD4
:107F0000A601A0E0B1E02C9130E011968C91119780
:107F100090E0982F8827822B932B1296FA010C0160
:107F200087BEE89511244E5F5F4FF1E0A038BF0790
:107F300051F7F601A7BEE89507B600FCFDCF97BE46
:107F4000E89526C08437B1F42ED02DD0F82E2BD052
:107F50003CD0F601EF2C8F010F5F1F4F84911BD097
:107F6000EA94F801C1F70894C11CD11CFA94CF0C13
:107F7000D11C0EC0853739F428D08EE10CD085E9AC
:107F80000AD08FE07ACF813511F488E018D01DD067
:107F900080E101D065CF982F8091C00085FFFCCF94
:107FA0009093C60008958091C00087FFFCCF809118
:107FB000C00084FD01C0A8958091C6000895E0E648
:107FC000F0E098E1908380830895EDDF803219F02E
:107FD00088E0F5DFFFCF84E1DECF1F93182FE3DFCA
:107FE0001150E9F7F2DF1F91089580E0E8DFEE27F6
:047FF000FF270994CA
:027FFE00040479
:0400000300007E007B
:00000001FF